:020000040800F2
:1000000060120024AD020008812E1008A1441008DF
:1000100001320008310310082942000800000000E6
:10002000000000000000000000000000D9371008A8
:100030001905000800000000892E1008E9350008A5
:10004000C7020008C7020008C7020008C70200086C
:10005000C7020008C7020008C7020008C70200085C
:10006000C7020008C7020008C7020008C70200084C
:10007000C7020008C7020008C7020008C70200083C
:10008000C7020008C7020008C7020008C70200082C
:10009000C7020008C7020008C7020008C70200081C
:1000A000C7020008C7020008C7020008C70200080C
:1000B000C7020008C7020008C7020008C7020008FC
:1000C000C7020008C7020008C7020008C7020008EC
:1000D000C7020008393F1008C7020008C70200081D
:1000E000C7020008C702000800000000C70200089D
:1000F000C7020008C7020008C7020008C7020008BC
:10010000C7020008C7020008C7020008C7020008AB
:10011000C7020008C7020008B93A1008C702000861
:10012000C7020008C7020008C7020008C70200088B
:10013000C7020008C7020008C7020008C70200087B
:1001400000000000000000000000000000000000AF
:10015000C7020008C7020008C7020008C70200085B
:10016000C7020008C7020008C7020008C70200084B
:10017000C7020008C7020008C7020008000000000C
:10018000C7020008C7020008C7020008C70200082B
:10019000C7020008C7020008C7020008C70200081B
:1001A000C7020008C7020008C7020008C70200080B
:1001B000B1330008C7020008C7020008C7020008E0
:1001C000C7020008C7020008C7020008C7020008EB
:1001D000C7020008C7020008C7020008C7020008DB
:1001E000C7020008C7020008C7020008C7020008CB
:1001F000C7020008C7020008C7020008C7020008BB
:10020000C7020008C7020008C7020008C7020008AA
:10021000C7020008C7020008C7020008C70200089A
:10022000C7020008C7020008D12D10080000000016
:10023000C7020008C702000800000000C70200084B
:10024000C7020008C7020008C7020008C70200086A
:10025000C7020008C7020008C7020008C70200085A
:10026000C7020008C7020008C7020008C70200084A
:10027000C7020008C7020008C7020008000000000B
:10028000C7020008C7020008C702000800000000FB
:1002900000000000C7020008DFF80CD000F022F9CF
:1002A0000048004751490008601200240648804772
:1002B00006480047FEE7FEE7FEE7FEE7FEE7FEE74B
:1002C000FEE7FEE7FEE7FEE759391008990200084D
:1002D000202A04DB203A21FA02F00021704721FA9B
:1002E00002F3D040C2F12002914008431946704702
:1002F0002DE9FE4F81EA030404F0004421F000419F
:1003000000944FF0000B23F0004350EA01045ED04C
:1003100052EA03045BD0C3F30A54C1F30A552C44D8
:10032000A4F2F3340194A0FB0254C1F3130141F48D
:100330008011C3F3130343F4801301FB024400FB59
:10034000034E840A970A44EA815447EA8357A4FB80
:10035000076802958D0A05FB07854FEA932C04FB7D
:100360000C542705029D4FEA065847EA1637B5EBAD
:1003700008056EEB070C870E920E47EA811742EADA
:100380008312A7FB0201B6EB0B0164EB00042B0DFB
:1003900043EA0C335E1844EB1C50DA465146E7FB47
:1003A0000201C5F313044FEA0B3343EA14534FEA37
:1003B0000432019C43EA0603A4F10C040294009C5D
:1003C000CDE900B4FFF064FF03B0BDE8F08F00207A
:1003D0000146F9E72DE9F04D81EA030404F0004BF2
:1003E00021F0004514464FF0000A23F0004150EA86
:1003F000050220D054EA01021DD0C5F30A57024677
:10040000C5F31303C1F31300C1F30A5640F480157A
:1004100043F48013A7EB0608101BD64608F2FD38FC
:1004200073EB050002D308F1010801E092185B416B
:10043000B8F1000F03DA00200146BDE8F08D00207E
:100440004FF48011064684460EE0171B73EB050738
:1004500005D3121B63EB050306434CEA010C490864
:100460004FEA300092185B4150EA0107EDD152EAA1
:10047000030012D082EA040083EA0501084305D094
:10048000101BAB4106D20122002306E000224FF0F0
:10049000004302E06FF0010253101AEB06004CEB30
:1004A000085110EB0A0041EB0B01BDE8F04DFFF0E5
:1004B000E0BE000030B5041E71F1000404DB4FF013
:1004C0000044404264EB0101141E73F1000405DB9B
:1004D0001C464FF00043524263EB0403994208BFAD
:1004E000904230BD1CB5094800900948019005466E
:1004F000009C06E0E06840F0010394E8070098479C
:100500001034AC42F6D3FFF7CBFE00001C4E0008BF
:100510003C4E000800000000704700000000000092
:1005200080B582B0019000910199009A44F6545030
:10053000C0F6000003F1BEFF009810B9FFE702B05B
:1005400080BDFFE7FEE7000040F22041C5F6000154
:10055000086840F0010008607047000000000000DB
:1005600090B00F900E9100200D908020C5F60000F5
:100570000A90FFE70E980D99C840002800F01181FD
:10058000FFE70E980D9A0121914008400C900C98BD
:10059000002800F00281FFE70D9820F0030040F2F0
:1005A0000841C5F6000140580B900D9800F003007B
:1005B00081000F2000FA01F10B9808400B900B9876
:1005C00009900F980021C5F60201884203D1FFE788
:1005D000002008907AE00F9840F20041C5F6020131
:1005E000884203D1FFE7012007906CE00F9840F6A6
:1005F0000001C5F60201884203D1FFE70220069000
:100600005EE00F9840F60041C5F60201884203D132
:10061000FFE70320059050E00F9841F20001C5F676
:100620000201884203D1FFE70420049042E00F98C2
:1006300041F20041C5F60201884203D1FFE70520DF
:10064000039034E00F9841F60001C5F6020188429C
:1006500003D1FFE70620029026E00F9841F6004103
:10066000C5F60201884203D1FFE70720019018E098
:100670000F9842F20001C5F60201884203D1FFE75C
:10068000082000900AE00F9942F20042C5F60202EB
:100690000A20914208BF09200090FFE700980190CE
:1006A000FFE701980290FFE702980390FFE70398A5
:1006B0000490FFE704980590FFE705980690FFE790
:1006C00006980790FFE707980890FFE709980899B0
:1006D0000D9A02F003029200914088422AD1FFE76E
:1006E0000C9A0A990868904308600C9A0A9948681D
:1006F000904348600C9A0421C5F6000108689043B5
:1007000008600C9A4FF0B0410868904308600D985B
:1007100000F0030081000F2088400B900B9B0D9888
:1007200020F0030140F20842C5F6000288589843C1
:100730008850FFE70D984100032000FA01F30F9A5B
:10074000116819431160DDF834C00CF007018A000C
:100750000F2101FA02F30F996FF0030202EA5C0223
:100760000A44116A994311620D99490000FA01F394
:100770000F9AD1689943D1600D9A012101FA02F3D1
:100780000F9A5168994351600D99490000FA01F29E
:100790000F99886890438860FFE70D9801300D90AD
:1007A000E8E610B07047000082B00190ADF802108A
:1007B0008DF801209DF8010028B1FFE7BDF8020087
:1007C0000199886105E0BDF8020000040199886183
:1007D000FFE702B07047000041F20000C5F600409C
:1007E0000068000C7047000040F20C00C2F20040AC
:1007F000027840F65861C2F200410868104408606F
:10080000704700000000000080B590B00F90FFE737
:1008100044F2E840C5F60200016841F010010160B1
:10082000006800F0100001900198FFE707A803A9F5
:1008300001F0FAF90C980590059820B9FFE701F14D
:10084000EFFF069004E001F1EBFF40000690FFE7A8
:1008500006984DF68361C4F21B31A0FB01014FF0F5
:10086000FF3000EB9140049040F2B400C2F200402F
:1008700041F20001C4F20001016040F2E731C160C1
:100880000499416000210161816002F08DF98DF8C9
:100890000B009DF80B0028BBFFE740F2B400C2F24A
:1008A000004002F0D5F98DF80B009DF80B00C0B99F
:1008B000FFE7362000F080FA0F980F280CD8FFE7EA
:1008C0000F993620002200F1A3F80F9840F2100192
:1008D000C2F20041086003E001208DF80B00FFE741
:1008E000FFE7FFE79DF80B0010B080BD000000009F
:1008F00083B00190019820B9FFE701208DF80B002B
:100900003EE001980168C86820F00100C8600198C5
:10091000016800200090C860019909680861019988
:100920000968486101990968886101990968C86185
:100930000199096808620199096848620199096882
:1009400088620199096808630199096848630199F7
:100950000A681F2151600199C865019908660199CB
:10096000486601998866019981F83D00FFE7019981
:10097000002081F83C00FFE700208DF80B00FFE726
:100980009DF80B0003B0704780B586B0059000203D
:10099000049040F20400C2F20040006848F2B51131
:1009A000C1F64E31A0FB0110800A03900598006843
:1009B0004FF6C071CAF6FF510844C0F384110120FC
:1009C000884002904FF0A44000680299084201D18B
:1009D000FFE735E1059800680068C007002858D097
:1009E000FFE705980068C0688007002850D5FFE73A
:1009F00005980168C86820F00200C8600598006882
:100A0000806801909DF804000006002806D4FFE7E6
:100A10000599886E40F00100886605E00599886EAA
:100A200040F002008866FFE79DF805008007002877
:100A300006D5FFE70599886E40F004008866FFE759
:100A40009DF80500C00730B1FFE70599886E40F0BA
:100A500008008866FFE79DF805004007002806D5D6
:100A6000FFE70599886E40F010008866FFE79DF863
:100A700005000007002806D5FFE70599886E40F0BD
:100A800020008866FFE70598016801204860FFE7BD
:100A9000FFE7059800680068C006002815D5FFE745
:100AA00005980068C068800600280DD5FFE7059806
:100AB0000168102048600598806C20B1FFE7059818
:100AC000816C8847FFE7FFE7FFE70598006800684B
:100AD0000007002815D5FFE705980068C068C00624
:100AE00000280DD5FFE705980168082048600598A3
:100AF000C06C20B1FFE70598C16C8847FFE7FFE7AE
:100B0000FFE70598006800684007002815D5FFE753
:100B100005980068C068000700280DD5FFE7059814
:100B20000168042048600598006D20B1FFE7059832
:100B3000016D8847FFE7FFE7FFE705980068006859
:100B4000800700283ED5FFE705980068C068400789
:100B5000002836D5FFE705980168C86820F03E00F8
:100B6000C860059890F83D00042813D1FFE7FFE71F
:100B70000599002081F83C00FFE70599012081F8E4
:100B80003D000598806D20B1FFE70598816D88478D
:100B9000FFE755E00598016802204860FFE70599E6
:100BA000002081F83C00FFE70599012081F83D0015
:100BB0000598406C20B1FFE70598416C8847FFE736
:100BC000FFE7FFE70598806ED0B3FFE705990420A3
:100BD00081F83D0005980168C86820F00100C860F0
:100BE000FFE70498013004900399884201D9FFE798
:100BF00007E0FFE705980068C068C0070028F0D14B
:100C0000FFE7FFE70599002081F83C00FFE7059822
:100C10000068C068C00728B1FFE70599032081F884
:100C20003D0004E00599012081F83D00FFE70598AB
:100C3000406D20B1FFE70598416D8847FFE7FFE76A
:100C400006B080BD0000000080B586B0DDF820C091
:100C50000490039102920193049820B9FFE70120C8
:100C60008DF8170077E0FFE7049890F83C00012822
:100C700004D1FFE702208DF817006CE004990120F1
:100C800081F83C00FFE7FFE7049890F83D00012859
:100C900053D1FFE70499022081F83D000499002018
:100CA000886604980168C86820F00100C86004984C
:100CB0000399029A019BDDF820C0EE46CEF800C0F1
:100CC00002F03AFA04980168C86840F00600C8606B
:100CD0000498C06C38B1FFE704980168C86840F018
:100CE0001000C860FFE70498006D38B1FFE7049872
:100CF0000168C86840F00800C860FFE70498806C8D
:100D000038B1FFE704980168C86840F02000C86067
:100D1000FFE704980168C86840F00100C8600498C3
:100D20004068B0F1804F07D1FFE704980168C868B8
:100D300040F48030C860FFE709E0FFE70499002035
:100D400081F83C00FFE702208DF8170003E0002047
:100D50008DF81700FFE79DF8170006B080BD000072
:100D6000BFF35F8F4EF62451CEF20001086820F4E5
:100D7000803008604EF69451CEF2000100200860E9
:100D8000704700000000000081B00090009840F023
:100D900001004EF69451CEF2000108604EF6245147
:100DA000CEF20001086840F480300860BFF34F8F36
:100DB000BFF36F8F01B0704780B582B0ADF8060009
:100DC000BDF9060003F1C4F902B080BD00000000C7
:100DD00080B582B00190019803F0DEFA02B080BDC8
:100DE00081B0009001B0704781B0009040F22001C6
:100DF000C2F2004108780130087001B0704700006D
:100E000080B582B00090009820B9FFE701208DF8EE
:100E1000070011E000980168086820F001000860F0
:100E2000009800F1D9F9009900204864009981F8F0
:100E300041008DF80700FFE79DF8070002B080BD74
:100E400080B586B00490FFF0CBFC0290049820B9E6
:100E5000FFE701208DF817006DE00498006A402834
:100E600001D0FFE7FFE7049890F8410048B9FFE799
:100E7000049800F1EDF9049841F2883100F018FA75
:100E8000FFE704980068006820F4F850049A11689D
:100E900093686FF0FF0202EB03221043086004988E
:100EA000029B816C6A4611602021002202F010FA38
:100EB0008DF80F009DF80F00C0BBFFE70498006895
:100EC00000684FF62F71C0F2FF010840049B1968BB
:100ED000D3F804E0DA68D3F81CC042EA0E6242EAB2
:100EE0000C021B6A1A4310430860049800684068AB
:100EF0004FF6FE01CFF6E0710840049B1968D3F865
:100F000010C05A699B6942EA0C421A431043486078
:100F100004980168086840F0010008600499002006
:100F200048640499012081F84100FFE79DF80F0013
:100F30008DF81700FFE79DF8170006B080BD000090
:100F400080B58AB008900791069200208DF81700AE
:100F5000FFF046FC049008980068806903900898A8
:100F6000006820300290FFE7089890F840000128C0
:100F700004D1FFE702208DF827008CE008990120BA
:100F800081F84000FFE7FFE7089890F8410001284A
:100F900072D1FFE70899002048640798002861D0C3
:100FA000FFE70899222081F841000898006800694D
:100FB0000130089988630898006800690130089931
:100FC00048630798089908630898006840690121F8
:100FD00061F39B600899096848610398089909685A
:100FE0008861FFE70898806BF0B1FFE70898049BE1
:100FF00006996A4611600621012202F069F98DF80E
:1010000017009DF8170008B1FFE70DE0029800787F
:101010000899096B08700899086B013008630899F2
:10102000886B01388863DDE79DF81700A8B9FFE7F2
:101030000898049B06996A4611600221012202F079
:1010400047F98DF817009DF8170028B9FFE70898B1
:1010500001680220C860FFE7FFE70899012081F8D6
:10106000410008E00899486C40F0080048640120FD
:101070008DF81700FFE703E002208DF81700FFE767
:10108000FFE70899002081F84000FFE79DF817006E
:101090008DF82700FFE79DF827000AB080BD00000B
:1010A00080B588B00690059100208DF81300069851
:1010B000006880690390069800680069013002901A
:1010C000FFE7069890F84000012804D1FFE70220CE
:1010D0008DF81F00E8E00699012081F84000FFE745
:1010E000FFE7069890F84100012840F0CE80FFE726
:1010F0000699002048640598002800F0B680FFE7B4
:101100000298069988630699222081F84100069882
:1011100001680320C8600698806B069948630598AB
:10112000069908630698C16B43F2B120C0F600002F
:1011300048640698C16B43F27920C0F60000486508
:101140000698C16B002088650698C06B006800692E
:1011500040F2033188430699C96B09680861069813
:10116000C06B006A68B9FFE70698C06B0068006949
:1011700040F60C41884308300699C96B096808613C
:1011800032E00698C06B006A40280ED1FFE706984F
:10119000C06B0068006940F60C41884300F581602F
:1011A0000699C96B096808611DE00698C06B006A62
:1011B00080280ED1FFE70698C06B0068006940F6F2
:1011C0000C41884300F608000699C96B096808615C
:1011D00008E00699486C40F00400486401208DF84E
:1011E0001300FFE7FFE7FFE70698006840694FF04C
:1011F000010C6CF39B600699096848610398069995
:1012000009688861069B1968D86B2031059A5B6B69
:10121000EE46CEF800C0FFF717FD98B9FFE7FFE7ED
:101220000699002081F84000FFE7069801680868E9
:1012300040F48030086006980168086840F00400B7
:10124000086011E001208DF81300069A516C41F0FE
:1012500004015164069981F84100FFE706990020D6
:1012600081F84000FFE7FFE70EE00699486C40F088
:101270000800486401208DF81300FFE7069900205C
:1012800081F84000FFE7FFE709E002208DF8130036
:10129000FFE70699002081F84000FFE7FFE79DF88F
:1012A00013008DF81F00FFE79DF81F0008B080BDF8
:1012B00082B00190009100980199886402B0704753
:1012C00081B0009001B0704780B586B00490039162
:1012D00000208DF80B00049800680069013001902F
:1012E000FFE7049890F84000012804D1FFE70220AE
:1012F0008DF81700E4E00499012081F84000FFE731
:10130000FFE7049890F84100012840F0CA80FFE709
:101310000499002048640398002800F0B280FFE799
:1013200001980499C8620499122081F84100049838
:1013300001680320C8600498C06A04998862039811
:101340000499486204980068406920F0406004995C
:10135000096848610498C16B43F26920C0F6100027
:1013600048640498C16B43F27920C0F600004865D8
:101370000498C16B002088650498C06B0068006900
:1013800040F60C4188430499C96B096808610498C8
:10139000C06BC06968B9FFE70498C06B006800695A
:1013A00040F20331884302300499C96B096808612F
:1013B00032E00498C06BC06910280ED1FFE7049892
:1013C000C06B0068006940F20331884300F581700A
:1013D0000499C96B096808611DE00498C06BC06975
:1013E00020280ED1FFE70498C06B0068006940F226
:1013F0000331884300F202200499C96B096808612F
:1014000008E00499486C40F00400486401208DF81D
:101410000B00FFE7FFE7FFE7049B1A68D86B03990F
:1014200020329B6AEE464FF0010CCEF800C0FFF769
:101430000BFC98B9FFE7FFE70499002081F8400012
:10144000FFE704980168086840F480300860049859
:101450000168086840F00400086011E001208DF880
:101460000B00049A516C41F004015164049981F815
:101470004100FFE70499002081F84000FFE7FFE703
:101480000EE00499486C40F00800486401208DF893
:101490000B00FFE70499002081F84000FFE7FFE719
:1014A00009E002208DF80B00FFE70499002081F885
:1014B0004000FFE7FFE79DF80B008DF81700FFE7FE
:1014C0009DF8170006B080BD81B0009040F2001179
:1014D000C2F2004108780130087001B07047000086
:1014E00088B0079044F22840C5F60200016801F078
:1014F000030106910068C0F30530059044F22C40CA
:10150000C5F602000068C0F300100490049844F28D
:101510003C41C5F60201096889B2C908484300EE9A
:10152000100AB8EE400A8DED020A0598002800F076
:101530001B81FFE70698009048B1FFE7009801285B
:1015400069D0FFE70098022800F08980ABE044F200
:101550000040C5F60200006800F020010020B0EB5A
:10156000511F33D0FFE744F20040C5F60200006887
:10157000C0F3C10149F20000C0F2D030C84003906E
:101580009DED030AB8EE400A9DED051AB8EE411A2A
:1015900080EE010A44F23840C5F6020000686FF39D
:1015A0005F2001EE100AB8EE411A9DED022A9FED70
:1015B000743A82EE032A31EE021AB7EE002A31EEB7
:1015C000021A20EE010A8DED010A23E09DED050AC5
:1015D000B8EE401A9FED6C0A80EE010A44F23840E2
:1015E000C5F6020000686FF35F2001EE100AB8EE46
:1015F000411A9DED022A9FED623A82EE032A31EEF6
:10160000021AB7EE002A31EE021A20EE010A8DED21
:10161000010AFFE76BE09DED050AB8EE401A9FED69
:10162000590A80EE010A44F23840C5F6020000680B
:101630006FF35F2001EE100AB8EE411A9DED022A09
:101640009FED4F3A82EE032A31EE021AB7EE002ADE
:1016500031EE021A20EE010A8DED010A47E09DED00
:10166000050AB8EE401A9FED450A80EE010A44F2E1
:101670003840C5F6020000686FF35F2001EE100AE3
:10168000B8EE411A9DED022A9FED3D3A82EE032A03
:1016900031EE021AB7EE002A31EE021A20EE010AEC
:1016A0008DED010A23E09DED050AB8EE401A9FED8D
:1016B000350A80EE010A44F23840C5F6020000689F
:1016C0006FF35F2001EE100AB8EE411A9DED022A79
:1016D0009FED2B3A82EE032A31EE021AB7EE002A72
:1016E00031EE021A20EE010A8DED010AFFE79DEDB1
:1016F000010A44F23840C5F60200016889B2490A7D
:1017000001EE101AB8EE411AB7EE002A31EE021AB5
:1017100080EE010A0799BCEEC00A81ED000A9DED3A
:10172000010A0168C1F3064101EE101AB8EE411A30
:1017300031EE021A80EE010A0799BCEEC00A81ED73
:10174000010A9DED010A0068C0F3066001EE100A6F
:10175000B8EE411A31EE021A80EE010A0798BCEE8B
:10176000C00A80ED020A07E0079900200860079987
:10177000486007998860FFE708B0704720BCBE4BFF
:10178000000000460024744A0024744C000000004D
:1017900080B586B004900391049820B9FFE701203A
:1017A0008DF817003CE2039842F20001C5F20021D7
:1017B000096801F00F01884216D9FFE742F20000E4
:1017C000C5F20020016821F00F01039A1143016066
:1017D000006800F00F000399884204D0FFE7012061
:1017E0008DF817001CE2FFE70498007840070028F6
:1017F00019D5FFE70498006944F21841C5F60201C3
:10180000096801F0700188420CD9FFE744F21841E1
:10181000C5F60201086820F07000049A12691043AE
:101820000860FFE7FFE7049800780007002819D553
:10183000FFE70498406944F21C41C5F602010968BB
:1018400001F0700188420CD9FFE744F21C41C5F653
:101850000201086820F07000049A52691043086081
:10186000FFE7FFE704980078C006002819D5FFE7D6
:101870000498806944F21C41C5F60201096801F42C
:10188000E06188420CD9FFE744F21C41C5F6020131
:10189000086820F4E060049A926910430860FFE74A
:1018A000FFE7049800788006002819D5FFE7049820
:1018B000C06944F22041C5F60201096801F07001D7
:1018C00088420CD9FFE744F22041C5F602010868BE
:1018D00020F07000049AD26910430860FFE7FFE728
:1018E000049800788007002819D5FFE70498C0689D
:1018F00044F21841C5F60201096801F00F0188425F
:101900000CD9FFE744F21841C5F60201086820F03F
:101910000F00049AD26810430860FFE7FFE70498BD
:101920000078C007002800F08C80FFE744F21841DF
:10193000C5F60201086820F47060049A92681043AA
:10194000086004984068022811D1FFE744F2004083
:10195000C5F60200006800F400310020B0EB514FE2
:1019600004D1FFE701208DF8170059E13EE004980B
:101970004068032811D1FFE744F20040C5F6020099
:10198000006800F000710020B0EB516F04D1FFE758
:1019900001208DF8170043E127E0049840680128F2
:1019A00011D1FFE744F20040C5F60200006800F4E0
:1019B00080710020B0EB112F04D1FFE701208DF8DA
:1019C00017002DE110E044F20040C5F60200006867
:1019D00000F004010020B0EB910F04D1FFE70120DB
:1019E0008DF817001CE1FFE7FFE7FFE744F2104125
:1019F000C5F60201086820F00700049A52681043F7
:101A00000860FEF0EDFE0190FFE744F21040C5F6DD
:101A10000200006800F0380004994968B0EBC10F7B
:101A20000ED0FFE7FEF0DCFE0199401A41F2893149
:101A3000884204D3FFE703208DF81700F0E0E4E7C5
:101A4000FFE7049800788007002819D5FFE704987D
:101A5000C06844F21841C5F60201096801F00F019F
:101A600088420CD2FFE744F21841C5F6020108682B
:101A700020F00F00049AD26810430860FFE7FFE7E8
:101A8000039842F20001C5F20021096801F00F013C
:101A9000884216D2FFE742F20000C5F2002001683A
:101AA00021F00F01039A11430160006800F00F005C
:101AB0000399884204D0FFE701208DF81700AFE0BA
:101AC000FFE7049800784007002819D5FFE704983D
:101AD000006944F21841C5F60201096801F070017D
:101AE00088420CD2FFE744F21841C5F602010868AB
:101AF00020F07000049A126910430860FFE7FFE7C6
:101B0000049800780007002819D5FFE70498406979
:101B100044F21C41C5F60201096801F070018842D7
:101B20000CD2FFE744F21C41C5F60201086820F020
:101B30007000049A526910430860FFE7FFE70498B9
:101B40000078C006002819D5FFE70498806944F2A0
:101B50001C41C5F60201096801F4E06188420CD21B
:101B6000FFE744F21C41C5F60201086820F4E0607A
:101B7000049A926910430860FFE7FFE70498007831
:101B80008006002819D5FFE70498C06944F2204177
:101B9000C5F60201096801F0700188420CD2FFE726
:101BA00044F22041C5F60201086820F07000049A52
:101BB000D26910430860FFE7FFE700F0B9F844F28C
:101BC0001842C5F602021168C1F3032344F6DE3160
:101BD000C0F61001CB5C03F01F03D84000900098C2
:101BE000126802F00F02895C01F01F01C84040F248
:101BF0000801C2F200410860009840F20401C2F2FC
:101C00000041086040F21000C2F200400068FEF798
:101C1000FBFD8DF80B009DF80B008DF81700FFE71A
:101C20009DF8170006B080BD82B001900091019927
:101C30003F20086044F21040C5F60200006800F042
:101C400007000199486044F21840C5F60200016897
:101C500001F47061019A9160016801F00F01019A2D
:101C6000D160006800F070000199086144F21C40E6
:101C7000C5F60200016801F07001019A5161006827
:101C800000F4E0600199886144F22040C5F602004A
:101C9000006800F070000199C86142F20000C5F2CE
:101CA0000020006800F00F000099086002B0704743
:101CB00080B582B000F03CF844F21842C5F602024A
:101CC0001168C1F3032344F6DE31C0F61001CB5C8A
:101CD00003F01F03D84001900198126802F00F0230
:101CE000895C01F01F0120FA01F140F20800C2F204
:101CF00000400160019940F20402C2F2004211600A
:101D0000006802B080BD000080B5FFF7D1FF44F24B
:101D10001C41C5F602010968C1F3022244F6DE3116
:101D2000C0F61001895C01F01F01C84080BD0000B1
:101D30008AB044F21040C5F60200006800F0380096
:101D400001460191182800F269810199DFE811F03C
:101D50001900660166016601660166016601660199
:101D60003A00660166016601660166016601660168
:101D70004000660166016601660166016601660152
:101D8000460044F20040C5F60200006800F0200161
:101D90000020B0EB511F0ED0FFE744F20040C5F623
:101DA00002000068C0F3C10149F20000C0F2D03067
:101DB000C840029005E049F20000C0F2D030029025
:101DC000FFE731E140F60010C0F23D0002902BE148
:101DD00047F64000C0F27D10029025E144F2284011
:101DE000C5F60200016801F0030108910068C0F324
:101DF0000510079044F22C40C5F60200006800F080
:101E000001000690069844F23441C5F602010968C3
:101E100089B2C908484300EE100AB8EE400A8DEDB9
:101E2000040A0798002800F0F580FFE70898009062
:101E300048B1FFE70098012869D0FFE70098022821
:101E400000F08980ABE044F20040C5F60200006873
:101E500000F020010020B0EB511F33D0FFE744F227
:101E60000040C5F602000068C0F3C10149F200005D
:101E7000C0F2D030C84005909DED050AB8EE400A8A
:101E80009DED071AB8EE411A80EE010A44F2304087
:101E9000C5F6020000686FF35F2001EE100AB8EE8D
:101EA000411A9DED042A9FED633A82EE032A31EE3A
:101EB000021AB7EE002A31EE021A20EE010A8DED69
:101EC000030A23E09DED070AB8EE401A9FED5B0A76
:101ED00080EE010A44F23040C5F6020000686FF35C
:101EE0005F2001EE100AB8EE411A9DED042A9FED25
:101EF000513A82EE032A31EE021AB7EE002A31EE91
:101F0000021A20EE010A8DED030AFFE76BE09DED5A
:101F1000070AB8EE401A9FED480A80EE010A44F223
:101F20003040C5F6020000686FF35F2001EE100A32
:101F3000B8EE411A9DED042A9FED3E3A82EE032A47
:101F400031EE021AB7EE002A31EE021A20EE010A33
:101F50008DED030A47E09DED070AB8EE401A9FEDAC
:101F6000340A80EE010A44F23040C5F602000068EF
:101F70006FF35F2001EE100AB8EE411A9DED042ABE
:101F80009FED2C3A82EE032A31EE021AB7EE002AB8
:101F900031EE021A20EE010A8DED030A23E09DEDD9
:101FA000070AB8EE401A9FED240A80EE010A44F2B7
:101FB0003040C5F6020000686FF35F2001EE100AA2
:101FC000B8EE411A9DED042A9FED1A3A82EE032ADB
:101FD00031EE021AB7EE002A31EE021A20EE010AA3
:101FE0008DED030AFFE744F23040C5F602000068B9
:101FF00081B2012000EB512009909DED030A9DED77
:10200000091AB8EE411A80EE010ABCEEC00A8DED45
:10201000020A02E000200290FFE705E040F600100F
:10202000C0F23D000290FFE702980AB0704700BF7F
:1020300020BCBE4B000000460024744A0024744CAF
:1020400080B58CB00A900A9828B9FFE701208DF876
:102050002F0000F09DBD0A980078C007002800F00E
:10206000B980FFE744F21040C5F60200006800F0B6
:102070003800069044F22840C5F60200006805903A
:10208000069810280AD0FFE7069818281CD1FFE709
:10209000059800F00300022816D1FFE744F2004043
:1020A000C5F60200006800F400310020B0EB514F8B
:1020B00009D0FFE70A98406828B9FFE701208DF8AA
:1020C0002F0000F065BD84E0FFE70A984068B0F596
:1020D000803F09D1FFE744F20041C5F602010868DC
:1020E00040F48030086032E00A98406868B9FFE741
:1020F00044F20041C5F60201086820F4803008600F
:10210000086820F48020086020E00A984068B0F554
:10211000A02F0DD1FFE744F20041C5F60201086887
:1021200040F480200860086840F4803008600CE0CB
:1021300044F20041C5F60201086820F480300860CE
:10214000086820F480200860FFE7FFE7FFE7FFE76B
:102150000A984068F0B1FFE7FEF042FB0990FFE704
:1021600044F20040C5F60200006800F4003100208F
:10217000B0EB514F0DD1FFE7FEF032FB0999401A49
:10218000652805D3FFE703208DF82F0000F000BD80
:10219000E6E71DE0FEF024FB0990FFE744F2004073
:1021A000C5F60200006800F400310020B0EB514F8A
:1021B0000DD0FFE7FEF014FB0999401A652805D3FE
:1021C000FFE703208DF82F0000F0E2BCE6E7FFE711
:1021D000FFE7FFE70A9800788007002840F11681A2
:1021E000FFE744F21040C5F60200006800F0380036
:1021F000049044F22840C5F6020000680390049859
:1022000050B1FFE70498182878D1FFE79DF80C003B
:102210008007002872D1FFE744F20040C5F60200B3
:10222000006800F004010020B0EB910F09D0FFE737
:102230000A98C06828B9FFE701208DF82F0000F048
:10224000A7BC44F20041C5F60201086820F019005D
:102250000A9AD26810430860FEF0C2FA0990FFE7BC
:1022600044F20040C5F60200006800F004010020BE
:10227000B0EB910F0DD1FFE7FEF0B2FA0999401AC9
:10228000032805D3FFE703208DF82F0000F080BC62
:10229000E6E7FFE7FEF7A0FA41F2030188421DD806
:1022A000FFE70A98006940280AD1FFE744F2044199
:1022B000C5F602010868202262F3113008600CE0C4
:1022C00044F20441C5F60201086820F47C300A9A01
:1022D000126940EA02300860FFE70CE044F2044172
:1022E000C5F60201086820F0FE400A9A126940EA29
:1022F00002600860FFE7FFE7FFE786E00A98C06832
:1023000000285CD0FFE744F20041C5F602010868EE
:1023100020F019000A9AD26810430860FEF060FAB3
:102320000990FFE744F20040C5F60200006800F0A3
:1023300004010020B0EB910F0DD1FFE7FEF050FA41
:102340000999401A032805D3FFE703208DF82F00D1
:1023500000F01EBCE6E7FFE7FEF73EFA41F203019C
:1023600088421DD8FFE70A98006940280AD1FFE794
:1023700044F20441C5F602010868202262F31130DC
:1023800008600CE044F20441C5F60201086820F43C
:102390007C300A9A126940EA02300860FFE70CE0DC
:1023A00044F20441C5F60201086820F0FE400A9A92
:1023B000126940EA02600860FFE7FFE724E044F2A8
:1023C0000041C5F60201086820F001000860FEF037
:1023D00007FA0990FFE744F20040C5F602000068E2
:1023E00000F004010020B0EB910F0CD0FFE7FEF0ED
:1023F000F7F90999401A032804D3FFE703208DF861
:102400002F00C5E3E7E7FFE7FFE7FFE70A9800785B
:10241000C006002840F1EB80FFE744F21040C5F60B
:102420000200006800F03800029044F22840C5F62F
:10243000020000680190029808280AD0FFE702987D
:10244000182850D1FFE7019800F0030001284AD175
:10245000FFE744F20040C5F60200006800F4807116
:102460000020B0EB112F09D0FFE70A98C06980283F
:1024700004D0FFE701208DF82F0089E3FFE7FEF786
:10248000ABF941F2030188421DD8FFE70A98006AC0
:1024900020280AD1FFE744F20441C5F6020108688A
:1024A000102262F39E6008600CE044F20441C5F61D
:1024B0000201086820F0F8400A9A126A40EA826035
:1024C0000860FFE70CE044F20C41C5F60201086821
:1024D00020F07C500A9A126A40EA02600860FFE726
:1024E000FFE7FFE782E00A98C069002858D0FFE7BD
:1024F00044F20041C5F60201086840F0800008601F
:10250000FEF06EF90990FFE744F20040C5F60200C4
:10251000006800F480710020B0EB112F0CD1FFE7B0
:10252000FEF05EF90999401A032804D3FFE703205F
:102530008DF82F002CE3E7E7FFE7FEF74DF941F2B6
:10254000030188421DD8FFE70A98006A20280AD1B3
:10255000FFE744F20441C5F602010868102262F365
:102560009E6008600CE044F20441C5F60201086870
:1025700020F0F8400A9A126A40EA82600860FFE799
:102580000CE044F20C41C5F60201086820F07C50D2
:102590000A9A126A40EA02600860FFE7FFE724E057
:1025A00044F20041C5F60201086820F0800008608E
:1025B000FEF016F90990FFE744F20040C5F602006C
:1025C000006800F480710020B0EB112F0CD0FFE701
:1025D000FEF006F90999401A032804D3FFE7032007
:1025E0008DF82F00D4E2E7E7FFE7FFE7FFE70A985F
:1025F0000078000700284FD5FFE70A98406928B304
:10260000FFE744F27441C5F60201086840F001009A
:102610000860FEF0E5F80990FFE744F27440C5F663
:102620000200006800F002010020B0EB510F0CD155
:10263000FFE7FEF0D5F80999401A032804D3FFE715
:1026400003208DF82F00A3E2E7E724E044F2744171
:10265000C5F60201086820F001000860FEF0C0F82D
:102660000990FFE744F27440C5F60200006800F0EC
:1026700002010020B0EB510F0CD0FFE7FEF0B0F8E4
:102680000999401A032804D3FFE703208DF82F008F
:102690007EE2E7E7FFE7FFE70A9800788006002878
:1026A0004FD5FFE70A98806928B3FFE744F200415D
:1026B000C5F60201086840F480500860FEF090F80A
:1026C0000990FFE744F20040C5F60200006800F4FC
:1026D00000510020B0EB513F0CD1FFE7FEF080F835
:1026E0000999401A032804D3FFE703208DF82F002F
:1026F0004EE2E7E724E044F20041C5F60201086833
:1027000020F480500860FEF06BF80990FFE744F277
:102710000040C5F60200006800F400510020B0EB54
:10272000513F0CD0FFE7FEF05BF80999401A0328EF
:1027300004D3FFE703208DF82F0029E2E7E7FFE746
:10274000FFE70A9800784007002840F1A780FFE7DC
:1027500044F60001C5F60201086840F48070086084
:10276000FEF03EF80990FFE744F60000C5F60200CF
:102770000068C00500280CD4FFE7FEF031F8099985
:10278000401A652804D3FFE703208DF82F00FFE1EE
:10279000EAE7FFE70A988068012809D1FFE744F2D9
:1027A0007041C5F60201086840F00100086031E0A0
:1027B0000A98806868B9FFE744F27041C5F60201E3
:1027C000086820F001000860086820F00400086034
:1027D0001FE00A98806805280DD1FFE744F2704198
:1027E000C5F60201086840F004000860086840F07F
:1027F000010008600CE044F27041C5F6020108686F
:1028000020F001000860086820F004000860FFE77D
:10281000FFE7FFE7FFE70A988068F8B1FFE7FDF000
:10282000DFFF0990FFE744F27040C5F60200006840
:1028300000F002010020B0EB510F0ED1FFE7FDF0D8
:10284000CFFF0999401A41F28931884204D3FFE74A
:1028500003208DF82F009BE1E5E71EE0FDF0C0FFAF
:102860000990FFE744F27040C5F60200006800F0EE
:1028700002010020B0EB510F0ED0FFE7FDF0B0FFDA
:102880000999401A41F28931884204D3FFE70320B5
:102890008DF82F007CE1E5E7FFE7FFE70A98406A43
:1028A000002800F07181FFE744F21040C5F60200F5
:1028B000006800F03800182800F0E080FFE70A9870
:1028C000406A022840F0B480FFE744F20041C5F6B8
:1028D0000201086820F080700860FDF081FF099017
:1028E000FFE744F20040C5F60200006800F0007106
:1028F0000020B0EB516F0CD0FFE7FDF071FF09999C
:10290000401A032804D3FFE703208DF82F003FE18E
:10291000E7E7FFE744F22841C5F60201086840F204
:10292000F33290430A9B9A6ADB6A42EA031210432D
:1029300008600A99086BD1F834C08B6BCA6B0138F8
:102940006FF35F204FF60061CFF6FF7101EB4C2172
:1029500089B208440021CFF6FF7101EB034101F475
:10296000FE0108444FF07F4101EB026101F0FE419E
:10297000084444F23041C5F602010860FFE744F222
:102980002C41C5F602010091086820F001000860A2
:1029900044F23442C5F6020210684FF6F8739843C9
:1029A0000A9B9B6C40EAC3001060086820F00C0092
:1029B0000A9A126C10430860086820F002000A9A14
:1029C000526C10430860086840F480300860086862
:1029D00040F400300860086840F48020086008680F
:1029E00040F00100086044F20041C5F602010868A9
:1029F00040F080700860FDF0F3FE0990FFE744F2BC
:102A00000040C5F60200006800F000710020B0EB45
:102A1000516F0CD1FFE7FDF0E3FE0999401A03283E
:102A200004D3FFE703208DF82F00B1E0E7E724E0AF
:102A300044F20041C5F60201086820F08070086089
:102A4000FDF0CEFE0990FFE744F20040C5F602001B
:102A5000006800F000710020B0EB516F0CD0FFE770
:102A6000FDF0BEFE0999401A032804D3FFE70320B6
:102A70008DF82F008CE0E7E7FFE784E044F2284080
:102A8000C5F602000068089044F23040C5F6020026
:102A9000006807900A98406A012837D0FFE7089835
:102AA00000F003000A99896A88422FD1FFE708984D
:102AB00000F47C710A98C06AB0EB111F26D1FFE7C1
:102AC00007986FF35F200A99096B013988421DD17D
:102AD000FFE7BDF81C100A98406B0138B0EB512F8E
:102AE00014D1FFE7079800F4FE010A98806B0138C3
:102AF000B0EB114F0AD1FFE7079800F0FE410A98AA
:102B0000C06B0138B0EB116F04D0FFE701208DF8E6
:102B10002F003DE044F23440C5F60200006880B268
:102B2000C00808900A98806C0899884229D0FFE76D
:102B300044F22C41C5F60201086820F0010008604B
:102B4000FDF04EFE0990FFE7FDF04AFE0999401A9C
:102B500008B9FFE7F8E744F23441C5F60201086816
:102B60004FF6F87290430A9A926C40EAC2000860ED
:102B700044F22C41C5F60201086840F001000860EB
:102B8000FFE7FFE7FFE7FFE700208DF82F00FFE7F3
:102B90009DF82F000CB080BD81B0009001B070474F
:102BA00081B0009001B0704780B582B0009000986D
:102BB00020B9FFE701208DF8070045E0009890F864
:102BC0003D0040B9FFE70099002081F83C000098E3
:102BD000FFF03EFEFFE70099022081F83D000099DA
:102BE00051F8040B00F170FF0099012081F84800B2
:102BF000FFE70099012081F83E00009981F83F002D
:102C0000009981F84000009981F84100009981F80D
:102C10004200009981F84300FFE7FFE70099012097
:102C200081F84400009981F84500009981F8460038
:102C3000009981F84700FFE70099012081F83D00E5
:102C400000208DF80700FFE79DF8070002B080BD67
:102C500083B00190019890F83D00012804D0FFE76F
:102C600001208DF80B0071E00199022081F83D00F0
:102C700001980168C86840F00100C86001980068C8
:102C80000021C4F2010188423CD0FFE701980068AE
:102C9000B0F1804F36D0FFE70198006840F2004164
:102CA000C4F2000188422DD0FFE70198006840F689
:102CB0000001C4F20001884224D0FFE701980068B7
:102CC00040F60041C4F2000188421BD0FFE70198A2
:102CD000006840F20041C4F20101884212D0FFE7CF
:102CE0000198006841F60001C4F20001884209D051
:102CF000FFE70198006844F20001C4F20101884234
:102D000019D1FFE70198006880680721C0F201012E
:102D100008400090009806280CD0FFE70098B0F516
:102D2000803F07D0FFE701980168086840F0010084
:102D30000860FFE706E001980168086840F00100BC
:102D40000860FFE700208DF80B00FFE79DF80B00FF
:102D500003B070470000000081B0009001B07047E0
:102D600081B0009001B0704780B584B002900191AD
:102D7000FFE7029890F88400012804D1FFE70220C1
:102D80008DF80F0032E00299012081F88400FFE7FE
:102D9000FFE702992420C1F88800029800680068C3
:102DA000009002980168086820F00100086002980D
:102DB0000068806820F06040019908430299096822
:102DC0008860029800F150FF009802990968086035
:102DD00002992020C1F88800FFE70299002081F8BD
:102DE0008400FFE700208DF80F00FFE79DF80F003B
:102DF00004B080BD0000000080B582B00090009853
:102E000020B9FFE701208DF8070046E000988069AF
:102E100008B1FFE700E0FFE70098D0F8880040B96C
:102E2000FFE70099002081F884000098FFF0C8FEB9
:102E3000FFE700992420C1F888000098016808681D
:102E400020F001000860009800F036FD012804D150
:102E5000FFE701208DF807001FE00098806A20B18D
:102E6000FFE7009800F144FFFFE700980168486819
:102E700020F49040486000980168886820F02A009B
:102E8000886000980168086840F0010008600098B8
:102E900000F01EFC8DF80700FFE79DF8070002B068
:102EA00080BD00000000000085B004904EF62C505C
:102EB000CEF200000068C00F68B1FFE74EF62C515B
:102EC000CEF20001086840F000400860049988696B
:102ED0000230886199E04EF62450CEF2000000687E
:102EE00040F22401C2F20041019108624EF62850DE
:102EF000CEF20000007881F824004EF62950CEF280
:102F00000000007888624EF63850CEF2000000686B
:102F1000C8624EF62A50CEF20000008808864EF6AF
:102F20002C50CEF20000006848634EF63050CEF2CE
:102F30000000006888634EF63C50CEF20000006846
:102F4000C86344F6F050C0F60000039000208DF8EE
:102F50000B00FFE79DF80B0028281BD8FFE703981C
:102F60009DF80B10405C41F22801C4F20101086099
:102F7000FFE741F21C00C4F201000068400600288F
:102F800001D4FFE7F5E7FFE79DF80B0001308DF86E
:102F90000B00DFE740F20411C2F20041002008609C
:102FA000FFE740F20410C2F20040006808B9FFE7F2
:102FB000F7E70498006840F22401C2F20041009152
:102FC00008600498406848600498806888600498A5
:102FD000C068C86004980069086104984069486145
:102FE0000498806988610498C069C86140F204113E
:102FF000C2F2004100200860FFE740F20410C2F274
:103000000040006808B9FFE7F7E705B07047000027
:1030100083B00290029A1168D06812691043C860A8
:10302000029B009319689A685869D3F818C040EA5F
:103030000C00D3F81CC040EA0C00D3F820C040EAD2
:103040000C00D3F824C040EA0C00D3F82CC040EAAE
:103050000C00D3F830C040EA0C00D3F828C000239D
:10306000CFF6FC7303EB8C431843104308610298BE
:103070004068B0F1804F07D1FFE702980168086906
:1030800040F040400861FFE7029801680020486175
:103090000298406BB0F1FF3F10DCFFE70298016837
:1030A000486940F4802048610298406B404201909A
:1030B000BDF8040002990968086204E00299888E4C
:1030C00009680862FFE70298806BB0F1FF3F12DCED
:1030D000FFE702980168486940F4002048610298BF
:1030E000806B40420190019A02980168086A40EAA8
:1030F0000240086207E002980168826B086A40EAB1
:1031000002400862FFE702984068B0F1804F05D0A6
:10311000FFE7029908790968886204E0029801686B
:1031200000208862FFE7029801680020486203B02F
:10313000704700000000000085B0DDF814C0049066
:10314000039102920193049800684069019961F328
:1031500010000499096848610498006840696FF399
:103160001F50059940EA0150A0F5801004990968A4
:103170004861049801681F20486002980499096812
:10318000C86103980499096888619DF80F000006DA
:1031900000900098B0F1005F03D0FFE7009838B9C5
:1031A000FFE704980168886A40F48030886206E08E
:1031B00004980168886A20F480308862FFE79DF8EF
:1031C0000B00000600900098B0F1005F03D0FFE70D
:1031D000009838B9FFE704980168886A40F4003025
:1031E000886206E004980168886A20F400308862EA
:1031F000FFE704980168C06D486205B070470000A1
:10320000FFE7FEE70000000088B0079006910592F6
:10321000079800F0070004900498C0F10700052803
:1032200003D3FFE70420019004E00498C0F10700F5
:103230000190FFE70198039004980430062803D812
:10324000FFE70020009003E0049803380090FFE7B8
:103250000098029006980399012202FA01F10139BF
:103260000840029B984005999A40013A1140084352
:1032700008B070470000000080B582B0019001984E
:10328000006C00900099002088630099C862009942
:10329000486C40F00400486400980168086820F019
:1032A000040008600098FDF0CBFB02B080BD000078
:1032B00082B001900198006C009000990020886312
:1032C00000980168086840F40030086002B0704758
:1032D00080B586B0DDF820C0049003918DF80B20F6
:1032E0000193FFE70498006880680399084000286C
:1032F00018BF01209DF80B1088421ED0FFE70898E8
:103300000130C8B1FFE7FDF06BFA0199401A089946
:10331000884203D8FFE7089868B9FFE704990420BA
:1033200081F841000499486C40F001004864012094
:103330008DF8170005E0FFE7D4E700208DF81700AF
:10334000FFE79DF8170006B080BD000000000000F8
:1033500080B590B00F9001A800903821FCF088FE55
:1033600000994FF4807007904FF440500490002073
:1033700009900C900D900E900622019208900A90F0
:10338000069040F26400C2F2004041F28832FDF043
:1033900057FC48B1FFE744F6D850C0F6100040F2A1
:1033A0002721FDF7BDF8FFE710B080BD0000000049
:1033B00080B540F26400C2F20040FDF055FD80BDD2
:1033C00080B586B00490039100208DF8070044F288
:1033D0002840C5F60200006800F00300032804D16D
:1033E000FFE701208DF81700CBE044F20041C5F65D
:1033F0000201086820F080500860FDF0F1F90290A9
:10340000FFE744F20040C5F60200006800F00051FA
:103410000020B0EB517F0CD0FFE7FDF0E1F90299FD
:10342000401A032804D3FFE703208DF81700A8E013
:10343000E7E7FFE744F22841C5F60201086820F0FB
:103440007C70049A126840EA025008600499486847
:10345000D1F808C0CB680A6901386FF35F204FF6D6
:103460000061CFF6FF7101EB4C2189B208440021C5
:10347000CFF6FF7101EB034101F4FE0108444FF068
:103480007F4101EB026101F0FE41084444F24041FA
:10349000C5F602010860FFE744F22C41C5F60201BF
:1034A0000091086820F44060049A52691043086053
:1034B000086820F40070049A926910430860086854
:1034C00020F48070086044F24442C5F6020210689D
:1034D0004FF6F8739843049BDB6940EAC300106021
:1034E000086840F480700860039848B9FFE744F228
:1034F0002C41C5F60201086840F48000086016E01F
:103500000398012809D1FFE744F22C41C5F60201D6
:10351000086840F40000086008E044F22C41C5F659
:103520000201086840F080700860FFE7FFE744F29E
:103530000041C5F60201086840F080500860FDF0C7
:103540004FF90290FFE744F20040C5F60200006820
:1035500000F000510020B0EB517F0CD1FFE7FDF0EF
:103560003FF90299401A032804D3FFE703208DF89E
:10357000170006E0E7E7FFE79DF807008DF8170062
:10358000FFE79DF8170006B080BD000000000000B6
:1035900080B582B0009000980138B0F1807F03D3ED
:1035A000FFE70120019019E0009801384EF2140164
:1035B000CEF2000108604FF0FF300F2100F0C8FE8E
:1035C0004EF21801CEF20001002008604EF2100207
:1035D000CEF20002072111600190FFE7019802B0CE
:1035E00080BD00000000000080B5FDF7FDF840F64A
:1035F0005050C2F20040007808B9FFE702E000F046
:1036000003F8FFE780BD000080B582B040F654604B
:10361000C2F20040006888B1FFE740F65461C2F290
:10362000004108680138086038B9FFE740F650618A
:10363000C2F2004101200870FFE7FFE700208DF88B
:103640000700FFE79DF80700032813DCFFE79DF85C
:10365000070000EB400140F62060C2F2004000EBA2
:10366000810000F175FEFFE79DF8070001308DF83D
:103670000700E7E740F62050C2F200400168013140
:10368000016000686FF00041884207D1FFE740F613
:103690002051C2F2004100200860FFE701F0F0F87D
:1036A00040F2B201C2F20041087801300870C0B2A5
:1036B0000A2809DBFFE740F2B201C2F20041002014
:1036C000087001F0D9F8FFE702B080BD00000000EB
:1036D00080B588B0069006990020C1F89000FDF0F2
:1036E0007FF80590069800680068000700282FD52D
:1036F000FFE70698059B6A466FF07E4111604FF424
:103700000011002200F198FB08B3FFE7FFE7FFE795
:103710000698006850E8000F20F080000490FFE752
:1037200004990698026842E800100028F0D1FFE7EB
:10373000FFE706992020C1F88800FFE706990020DE
:1037400081F88400FFE703208DF81F005FE0FFE7AA
:103750000698006800684007002842D5FFE70698F1
:10376000059B6A466FF07E4111604FF48001002294
:1037700000F162FBA0B3FFE7FFE7FFE706980068F0
:1037800050E8000F20F490700390FFE7039906982B
:10379000026842E800100028F0D1FFE7FFE7FFE7EA
:1037A000FFE70698006850E8020F20F00100029041
:1037B000FFE702990698026842E802100028F0D15B
:1037C000FFE7FFE706992020C1F88C00FFE7069984
:1037D000002081F88400FFE703208DF81F0016E029
:1037E000FFE706992020C1F888000699C1F88C00EF
:1037F00006990020C86606990867FFE70699002029
:1038000081F88400FFE700208DF81F00FFE79DF896
:103810001F0008B080BD000084B00390FFE7FFE701
:103820000398006850E8000F20F490700290FFE7C2
:1038300002990398026842E800100028F0D1FFE7DF
:10384000FFE7FFE7FFE70398006850E8020F4FF635
:10385000FE71CEF6FF7108400190FFE701990398D1
:10386000026842E802100028EDD1FFE7FFE7039865
:10387000C06E012814D1FFE7FFE7FFE70398006857
:1038800050E8000F20F010000090FFE70099039827
:10389000026842E800100028F0D1FFE7FFE7FFE7E9
:1038A00003992020C1F88C0003990020C866039971
:1038B000486704B07047000080B59CB01B900020A2
:1038C0008DF85F001B98006840F60041C5F60001C6
:1038D000884201D1FFE700E0FFE71B9988680B6988
:1038E0004A69C9691843104308431A901B98006835
:1038F000006846F6F311CCF6FF7108401A990843A8
:103900001B99096808601B980068406820F44050C3
:103910001B9A1168D268104348601B9880691A90FE
:103920001B98006840F60041C5F60001884206D0A9
:10393000FFE71B98016A1A9808431A90FFE71B9843
:10394000006880684FF2FF41C1F2FF1108401A99E8
:1039500008431B99096888601B980068C06A20F0BA
:103960000F001B9A1168526A1043C862FFE71B9848
:10397000006841F20001C4F20101884240F0418038
:10398000FFE744F25440C5F60200006800F038003A
:1039900001460E9128282FD80E99DFE801F0152D49
:1039A0002D2D2D2D2D2D192D2D2D2D2D2D2D1D2D6B
:1039B0002D2D2D2D2D2D212D2D2D2D2D2D2D252D4B
:1039C0002D2D2D2D2D2D290001208DF8650017E0BE
:1039D00004208DF8650013E008208DF865000FE0E5
:1039E00010208DF865000BE020208DF8650007E0C1
:1039F00040208DF8650003E080208DF86500FFE72A
:103A0000D6E11B98006844F20041C4F200018842EC
:103A10002ED1FFE744F25440C5F60200006800F0E2
:103A2000070001460D9105281DD80D99DFE801F02A
:103A300003070B0F131700208DF8650017E0042013
:103A40008DF8650013E008208DF865000FE0102068
:103A50008DF865000BE020208DF8650007E0402020
:103A60008DF8650003E080208DF86500FFE79EE19A
:103A70001B98006844F60001C4F2000188422ED170
:103A8000FFE744F25440C5F60200006800F007006A
:103A900001460C9105281DD80C99DFE801F00307B9
:103AA0000B0F131700208DF8650017E004208DF828
:103AB000650013E008208DF865000FE010208DF8F8
:103AC00065000BE020208DF8650007E040208DF8B0
:103AD000650003E080208DF86500FFE766E11B9834
:103AE000006844F60041C4F2000188422ED1FFE78D
:103AF00044F25440C5F60200006800F00700014699
:103B00000B9105281DD80B99DFE801F003070B0F77
:103B1000131700208DF8650017E004208DF865006C
:103B200013E008208DF865000FE010208DF8650087
:103B30000BE020208DF8650007E040208DF865003F
:103B400003E080208DF86500FFE72EE11B980068F8
:103B500045F20001C4F2000188422ED1FFE744F291
:103B60005440C5F60200006800F0070001460A91C3
:103B700005281DD80A99DFE801F003070B0F13177A
:103B800000208DF8650017E004208DF8650013E033
:103B900008208DF865000FE010208DF865000BE01F
:103BA00020208DF8650007E040208DF8650003E0D7
:103BB00080208DF86500FFE7F6E01B98006841F271
:103BC0000041C4F20101884240F04180FFE744F225
:103BD0005440C5F60200006800F038000146099123
:103BE00028282FD80999DFE801F0152D2D2D2D2D2E
:103BF0002D2D192D2D2D2D2D2D2D1D2D2D2D2D2D19
:103C00002D2D212D2D2D2D2D2D2D252D2D2D2D2DF8
:103C10002D2D290001208DF8650017E004208DF876
:103C2000650013E008208DF865000FE010208DF886
:103C300065000BE020208DF8650007E040208DF83E
:103C4000650003E080208DF86500FFE7ABE01B987E
:103C5000006847F60001C4F2000188422ED1FFE758
:103C600044F25440C5F60200006800F00700014627
:103C7000089105281DD80899DFE801F003070B0F0C
:103C8000131700208DF8650017E004208DF86500FB
:103C900013E008208DF865000FE010208DF8650016
:103CA0000BE020208DF8650007E040208DF86500CE
:103CB00003E080208DF86500FFE773E01B98006843
:103CC00047F60041C4F2000188422ED1FFE744F2DA
:103CD0005440C5F60200006800F007000146079155
:103CE00005281DD80799DFE801F003070B0F13170C
:103CF00000208DF8650017E004208DF8650013E0C2
:103D000008208DF865000FE010208DF865000BE0AD
:103D100020208DF8650007E040208DF8650003E065
:103D200080208DF86500FFE73BE01B98006840F6B7
:103D30000041C5F6000188422ED1FFE744F2584009
:103D4000C5F60200006800F007000146069105284C
:103D50001DD80699DFE801F003070B0F13170220A7
:103D60008DF8650017E004208DF8650013E0082049
:103D70008DF865000FE010208DF865000BE0202025
:103D80008DF8650007E040208DF8650003E0802095
:103D90008DF86500FFE703E080208DF86500FFE700
:103DA000FFE7FFE7FFE7FFE7FFE7FFE7FFE7FFE7E3
:103DB000FFE71B98006840F60041C5F60001884205
:103DC00040F0B480FFE79DF86500014605910228A8
:103DD00014D0FFE70598042814D0FFE705980828B9
:103DE00016D0FFE70598102818D0FFE7059820287F
:103DF00035D0FFE70598402837D03AE0FDF054FB76
:103E00000F903CE013A8FDF76BFB14980F9036E081
:103E100010A8FDF05DFB11980F9030E044F20040D7
:103E2000C5F60200006800F020010020B0EB511F31
:103E30000ED0FFE744F20040C5F602000068C0F370
:103E4000C10149F20000C0F2D030C8400F9005E037
:103E500049F20000C0F2D0300F90FFE70FE040F6CB
:103E60000010C0F23D000F9009E04FF400400F90A9
:103E700005E000200F9001208DF85F00FFE70F980C
:103E8000002852D0FFE70F981B994A6A44F6F63192
:103E9000C0F6100131F81210B0FBF1F01690169830
:103EA0001B99496801EB4101884207D3FFE7169847
:103EB0001B994968B0EB013F04D9FFE701208DF859
:103EC0005F0031E00F981B994A6803924A6A44F6F2
:103ED000F631C0F6100131F8122000230493194680
:103EE000FCF08EF8039A049B090241EA106100027B
:103EF00010EB520041F10001FCF082F81890189884
:103F0000B0F5407F0BD3FFE718990020B0EB115FAD
:103F100005D1FFE718981B990968C86003E00120E4
:103F20008DF85F00FFE7FFE7FFE746E11B98C069F8
:103F3000B0F5004F40F0A880FFE79DF8650001460E
:103F40000291402800F263800299DFE801F0212508
:103F50006060296060602F606060606060603560F4
:103F6000606060606060606060606060606056605B
:103F70006060606060606060606060606060606041
:103F800060606060606060606060606060605C0095
:103F9000FEF046FC0F9040E0FDF7B6FE0F903CE0CF
:103FA00013A8FDF79DFA14980F9036E010A8FDF0C5
:103FB0008FFA11980F9030E044F20040C5F60200ED
:103FC000006800F020010020B0EB511F0ED0FFE789
:103FD00044F20040C5F602000068C0F3C10149F296
:103FE0000000C0F2D030C8400F9005E049F2000058
:103FF000C0F2D0300F90FFE70FE040F60010C0F2A3
:104000003D000F9009E04FF400400F9005E00020C4
:104010000F9001208DF85F00FFE70F9898B3FFE73E
:104020000F981B9A5168536A44F6F632C0F6100294
:1040300032F81320B0FBF2F0400000EB5100B0FB6F
:10404000F1F018901898102818D3FFE7BDF8620017
:10405000A0B9FFE7189820F00F00ADF86600189897
:1040600000F00E01BDF8660040EA5100ADF86600B0
:10407000BDF866001B990968C86003E001208DF84F
:104080005F00FFE7FFE797E09DF8650001460191BB
:10409000402800F263800199DFE801F0212560608B
:1040A000296060602F6060606060606035606060A3
:1040B000606060606060606060606060566060600A
:1040C00060606060606060606060606060606060F0
:1040D0006060606060606060606060605C00FEF016
:1040E0009FFB0F9040E0FDF70FFE0F903CE013A800
:1040F000FDF7F6F914980F9036E010A8FDF0E8F9F6
:1041000011980F9030E044F20040C5F602000068BC
:1041100000F020010020B0EB511F0ED0FFE744F269
:104120000040C5F602000068C0F3C10149F200007A
:10413000C0F2D030C8400F9005E049F20000C0F254
:10414000D0300F90FFE70FE040F60010C0F23D00C6
:104150000F9009E04FF400400F9005E000200F9011
:1041600001208DF85F00FFE70F9820B3FFE70F985D
:104170001B9A5168536A44F6F632C0F6100232F8C0
:104180001320B0FBF2F000EB5100B0FBF1F01890FF
:10419000189810280AD3FFE7BDF8620030B9FFE78E
:1041A000BDF860001B990968C86003E001208DF824
:1041B0005F00FFE7FFE7FFE7FFE71B990120A1F89A
:1041C0006A001B99A1F868001B99002048671B9999
:1041D00088679DF85F001CB080BD000000000000F3
:1041E00040F62451C2F2004141F20000C4F2010045
:1041F000086040F62010C2F20040486040F22050B3
:10420000C2F2004088604FF480608881C88100203D
:1042100008824882C882088348838882C86108620D
:10422000486281F828007047FFE7FEE700000000C1
:1042300080B542F21801C5F602014FF00070086027
:10424000012000F0C9F880BD81B08DF80300002086
:104250008DF80200FFE79DF80200072874DCFFE7F5
:104260009DF803000006002831D5FFE742F218014F
:10427000C5F602014FF4007008600020ADF80000A0
:10428000FFE7BDF800002C2808DCFFE700BFFFE7D0
:10429000BDF800000130ADF80000F2E742F218016D
:1042A000C5F602014FF0007008600020ADF8000074
:1042B000FFE7BDF800000B2808DCFFE700BFFFE7C1
:1042C000BDF800000130ADF80000F2E730E042F246
:1042D0001801C5F602014FF4007008600020ADF827
:1042E0000000FFE7BDF800000B2808DCFFE700BF77
:1042F000FFE7BDF800000130ADF80000F2E742F240
:104300001801C5F602014FF0007008600020ADF8FA
:104310000000FFE7BDF800002C2808DCFFE700BF25
:10432000FFE7BDF800000130ADF80000F2E7FFE75D
:104330009DF8030040008DF80300FFE79DF80200A0
:1043400001308DF8020086E701B0704700000000E0
:1043500082B0ADF806000091BDF9060000280AD42D
:10436000FFE700980001BDF906104EF20042CEF2C0
:10437000000288540BE000980001BDF8061001F01F
:104380000F014EF61452CEF200028854FFE702B03D
:10439000704700000000000083B00290029800F017
:1043A000070000904EF60C51CEF200010868019013
:1043B00001984FF6FF02104001900198009A40EAE0
:1043C00002200022C0F2FA521043019001980860C6
:1043D00003B070470000000083B00090009808B957
:1043E000FFE727E00098012803D1FFE702200090B3
:1043F000FFE7FFE701200290029880F31088009801
:1044000040F65461C2F20041086040F65061C2F2C9
:104410000041002008700190019880F31088FFE7A8
:1044200040F65060C2F200400078012801D1FFE759
:1044300000E0F5E703B0704780B582B08DF8070063
:104440009DF8071040F6C050C2F2004000EB01108A
:1044500000909DF80700FEF037FC002863D0FFE7CE
:1044600000980079042804DCFFE700990520087112
:1044700058E000980079092805DCFFE700990879E1
:10448000013008714DE00098807A60B9FFE700992B
:10449000012088729DF8070000EB40000130C0B297
:1044A000FFF0CEFEFFE700980089012838DBFFE728
:1044B0000099C8880989884214DAFFE70099C888FA
:1044C0000130C88080B200990989884209D1FFE78C
:1044D0009DF8070000EB40000330C0B2FFF0B0FED3
:1044E000FFE71CE00098C07A012817DBFFE700997E
:1044F000087B01300873C0B20099C97A88420CDB8E
:10450000FFE70099002008739DF8070000EB4000CA
:104510000130C0B2FFF094FEFFE7FFE7FFE7FFE7DF
:10452000FFE7FFE72AE000980079062804DBFFE7B1
:104530000099052008711BE00098007928B1FFE779
:10454000009908790138087111E00098807A0128F3
:104550000CD1FFE70099002088729DF8070000EB5E
:1045600040000230C0B2FFF06BFEFFE7FFE7FFE75D
:1045700000990020C88000990873FFE702B080BD51
:1045800080B5FEF031FCFBF0D7FEFCF031F9FFF016
:1045900027F900F049F900F03FF900F0DDF800F0EC
:1045A00073F900F079F980BD80B588B0FFE744F277
:1045B000E040C5F60200016841F0080101600068B2
:1045C00000F0080001900198FFE7FFE744F2E040A7
:1045D000C5F60200016841F002010160006800F0C8
:1045E000020000900098FFE700200490059003214E
:1045F00006918DF80B00FFE79DF80B00042818DCEE
:10460000FFE79DF80B1044F61040C0F6100000EBD9
:10461000C101898803919DF80B1050F8310003A95E
:10462000FBF0FAFEFFE79DF80B0001308DF80B0060
:10463000E2E708B080BD000080B584B040F61061AC
:10464000C2F200410020C872887208738DF80F0012
:10465000FFE79DF80F00042827DCFFE79DF80F0017
:1046600040F6C051C2F2004101EB001264201081FB
:104670009DF80F0001EB0012022010719DF80F0051
:1046800001EB0012002090729DF80F2001EB021246
:10469000D0729DF80F2001EB02110873FFE79DF81F
:1046A0000F0001308DF80F00D3E700206421019145
:1046B00006220292FFF0F8FD0199029A0120FFF014
:1046C000F3FD0199029A0220FFF0EEFD0199029A92
:1046D0000320FFF0E9FD04B080BD000000000000F1
:1046E00080B582B040F26400C2F2004045F20001A1
:1046F000C5F200210160FCF783FB40B1FFE744F6FF
:10470000D850C0F610004121FBF70AFFFFE740F246
:104710006400C2F2004001900121416020218160CB
:104720001021C160192101614FF4807141610021A4
:104730008161C1610162FCF783FB40B1FFE744F690
:10474000D850C0F610006521FBF7EAFEFFE702B083
:1047500080BD00000000000080B582B000208DF810
:104760000700FFE79DF80700032827DCFFE79DF817
:10477000070000EB400040F62061C2F2004101EB6F
:104780008002002050609DF8072002EB420201EBFE
:10479000820290609DF8072002EB420201EB820248
:1047A00050709DF8072002EB420201F82200FFE75B
:1047B0009DF8070001308DF80700D3E740F20400B0
:1047C000C2F20040006844F6D351C1F26201A0FB7E
:1047D00001108009FEF7DCFE40F65051C2F20041A4
:1047E0000120087002B080BD80B582B000208DF835
:1047F0000700FFE79DF8070004280BDCFFE79DF8A2
:104800000700FFF719FEFFE79DF8070001308DF85C
:104810000700EFE702B080BD80B5FFF70DFFFFF79F
:10482000C3FE80BD0000000080B586B0002005906A
:104830000490039002900190FFE744F2E040C5F637
:104840000200016841F480710160006800F480702A
:1048500000900098FFE74FF4007001900120029053
:1048600000200390049042F20000C5F6020001A966
:10487000FBF0D2FD06B080BD80B5FFF7B5FF80BD6F
:10488000704700000000000080B5FFF7A9FCFEF0B3
:104890009BF9FEF07DFF80BD80B58AB0FFE7FFE7A2
:1048A00044F2E040C5F60200016841F08001016079
:1048B000006800F0800004900498FFE7FFE7FFE73E
:1048C000FFE744F2E040C5F60200016841F08001D4
:1048D0000160006800F0800003900398FFE7FFE7A5
:1048E000802005900120069007900320089041F653
:1048F0000040C5F60200019005A90291FBF08CFD75
:10490000019802994FF48072059211220692FBF0F1
:1049100083FDFFF09DFD0AB080BD00000000000097
:1049200081B00020ADF80200ADF80200FFE7BDF84D
:104930000200B0F5707F08DAFFE700BFFFE7BDF8BF
:1049400002000130ADF80200F1E701B0704700004D
:1049500080B590B000200B900F90FFF711FEFFF78D
:10496000BFFE0B984FF4FA61FFF012FDFFE70A203B
:10497000089000220A921146FFF07EFC6420099004
:10498000FFF72AFD08990A9A1046FFF075FC09986E
:10499000FFF722FD089A0A990846FFF06DFC099876
:1049A000FFF71AFD0A98FFF017FC012840F0E98094
:1049B000FFE7FEF02DFD0E900E9944F64140C0F643
:1049C0001000FFF077FD44F6AA40C0F61000FFF09B
:1049D00071FD00200C90FFE70C990020B0EB912FA7
:1049E0000BD1FFE70C9840F22011C2F200410854AD
:1049F000FFE70C9801300C90EEE700200790FEF0E6
:104A000043FC07980C90FFE70C990020B0EB912F26
:104A100018D1FFE70C9940F22010C2F200404FF489
:104A20008072FEF049FD38B9FFE744F67640C0F6E3
:104A30001000FFF03FFDFFE7FFE70C9800F58070E6
:104A40000C90E1E744F69040C0F61000FFF032FD14
:104A500040F22010C2F2004005904FF480610491B2
:104A60005522FBF0FEFA0598002106910122FEF086
:104A70006FFC44F63150C0F61000FFF01BFD0598A6
:104A8000017844F63840C0F61000FFF013FD049999
:104A90000598AA22FBF0E5FA059806990A22FEF08D
:104AA00057FC44F67050C0F61000FFF003FD069866
:104AB0000C90FFE70C98092811D8FFE70C9940F2F9
:104AC0002010C2F20040415C44F6B450C0F6100021
:104AD000FFF0F0FCFFE70C9801300C90EAE744F699
:104AE000AD50C0F61000FFF0E5FC40F22010C2F21D
:104AF000004001904FF480610291FBF0B9FA0198F7
:104B0000029A00210391FEF023FC44F6F240C0F625
:104B10001000FFF0CFFC03980C90FFE70C990020E9
:104B2000B0EB912F2CD1FFE70C9940F22010C2F28C
:104B30000040415C44F6B450C0F61000FFF0BAFCEF
:104B40000C9800F01F001F2807D1FFE744F6AD5076
:104B5000C0F61000FFF0AEFC0DE00C9800F01F0056
:104B60000F2807D1FFE744F6B050C0F61000FFF061
:104B7000A1FCFFE7FFE7FFE70C9801300C90CDE7C1
:104B8000FFE7F4E602E008C8121F08C1002AFAD1C4
:104B900070477047002001E001C1121F002AFBD1BD
:104BA000704700002DE9FF5F82B00021DDE904308D
:104BB000020DDDF840B0034318D044F61050A2F2C5
:104BC000FF3242431514119801281FD0A5EB0B00AA
:104BD000401C5FEA000A4FF000064E4FDFF83891A4
:104BE000B046504615D5CAF1000413E011980124CF
:104BF0004AA3012801D16FEA0B010298119AC0E97A
:104C00000031C0E9024206B0BDE8F09FCBF10000E0
:104C1000DFE704460021404A491842EB0450CDE941
:104C2000001012E0E00707D032463B4640464946B6
:104C3000FBF75EFB8046894632463B4610461946E6
:104C4000FBF756FB06460F466410002CEAD1DDE95F
:104C50000401DDE90023BAF1000F06DAFBF748FB97
:104C600042464B46FBF744FB05E0FBF7B3FB4246ED
:104C70004B46FBF7AFFB04460E460022284BFBF7E2
:104C800019FC03D84FF0FF30014607E00022254B06
:104C900020463146FBF01CFAFBF0C1FA102409E073
:104CA000002C0ADB0A220023FBF0AAF9039B303216
:104CB0001A55641E50EA0102F2D1641C039AC4F131
:104CC00011031444119A012A03D0012208430DD183
:104CD0000AE0084304D000204FF0110B119072E756
:104CE000A3EB0B056D1E0DE05B4504DD4FF00002EC
:104CF00005F1010504E003DA4FF00002A5F101051A
:104D0000002AECD002981199C0E90231C0E90045AF
:104D100079E70000000014400000F03F3000000080
:104D20000000F0430000E03F2DE9F041044600257B
:104D30001E461746880404D405E039462020B047B3
:104D40006D1C641EF9D52846BDE8F0810101010300
:104D50000701000057726F6E6720706172616D65A8
:104D6000746572732076616C75653A2066696C654E
:104D7000202573206F6E206C696E652025640D0AF6
:104D8000004572726F723A2066696C652025732C3B
:104D90002066756E6374696F6E20257328290D0A6D
:104DA000002E2E2F2E2E2F557365722F4253502F0B
:104DB0007372632F6273705F74696D65722E630026
:104DC0006273705F53746172744175746F54696D6E
:104DD0006572006273705F53746F7054696D6572B1
:104DE000006273705F537461727454696D65720010
:104DF0000D0A456E74657220486172644661756C77
:104E0000745F48616E646C65722C205379737465AD
:104E10006D2048616C742E0D0A000000404E0008A1
:104E20000000002420000000844B0008604E0008B1
:104E30002000002440120000944B000800000000F5
:104E4000000000000090D0030090D003010000009B
:104E50001000000000000000000000000000000042
:020000040810E2
:100000002DE9F05F0546002092469B46884606464D
:10001000814640241BE0284641464746224600F7D9
:1000200057F953465A46C01A914110D31146184603
:10003000224600F03EF82D1A67EB01084F46224693
:100040000120002100F035F817EB00094E41201E79
:10005000A4F10104DFDC484631462A464346BDE8A8
:10006000F09FD2B201E000F8012B491EFBD270478D
:100070000022F6E710B513460A4604461946FFF774
:10008000F0FF204610BD30B50B460146002020226F
:10009000012409E021FA02F59D4205D303FA02F595
:1000A000491B04FA02F52844151EA2F10102F1DCF5
:1000B00030BD202A04DB203A00FA02F1002070470C
:1000C0009140C2F1200320FA03F319439040704796
:1000D0002DE9FE4F804681EA0300C00F0C460090D8
:1000E00021F0004123F00045B8EB0200A94105D200
:1000F0004046214690461C460B46024623F00040EF
:10010000104347D0270DC7F30A00C3F30A510290EA
:10011000401A019040286BDAC3F3130040F4801BAF
:100120000098924620B10023D2EB030A63EB0B0B3D
:1001300001985946C0F140025046FFF7BAFF064603
:100140000D4650465946019A00F081F810EB080020
:100150006141002487EA115284EAE7731A4340D0D0
:10016000009A62B3019A012A4FEA075215DC001B7C
:1001700061EB02014FF0004202EA0752CDE9004272
:10018000001C41F5801132462B4600F081F803B087
:10019000BDE8F08F40462146F9E7001B61EB020104
:1001A000001C41F5801300185B412018A2F50017D0
:1001B00047EB030140EAD570B6196D4111E06D08B7
:1001C0004FEA360645EAC0754FEA0752001B61EB5D
:1001D0000201001C41F5801149084FEA3000001966
:1001E000514132462B4603B0BDE8F04F00F041B814
:1001F0000098012240000023D0EB020263EBE07381
:10020000009821464FEAE074B8EB000061EB04016E
:10021000E9E783F000435BE781F0004158E7C1F371
:100220000A52C1F3130140F2FF3341F480119A42A4
:1002300002DA00200146704740F233439A42A2F2AC
:10024000334202DC524200F743B8FFF732BF202AA4
:1002500006DBCB17203A41FA02F043EAE07306E0EE
:1002600041FA02F3D040C2F12002914008431946FE
:10027000704710B5141E73F1000408DA401C41F1F8
:10028000000192185B411A4301D120F0010010BD1A
:100290002DE9F04D92469B4611B1B1FA81F202E090
:1002A000B0FA80F220329046FFF703FF04460F4673
:1002B00040EA0A0041EA0B0153465A46084313D06C
:1002C000114653EA010019D0C8F140025046FFF62A
:1002D000FFFF05460E46504659464246FFF7E9FEE7
:1002E000084305D0012004E020463946BDE8F08DE2
:1002F0000020054346EAE0762C4337430A9863051D
:10030000E40AA0EB08000022FD0A44EA47540A3040
:1003100002D500200146E9E7010510196941DDE930
:10032000084500196941BDE8F04DA2E70000000052
:10033000FFE7FEE70000000083B04EF61450CEF257
:10034000000000688003002801D5FFE71AE0BFF332
:100350004F8FBFF36F8F4EF65071CEF20001002029
:100360000860BFF34F8FBFF36F8F4EF61451CEF27C
:100370000001086840F400300860BFF34F8FBFF3FE
:100380006F8FFFE74EF61450CEF200000068C003F6
:10039000002801D5FFE73CE04EF68451CEF2000183
:1003A00000200860BFF34F8F4EF68050CEF2000061
:1003B000006802900298C0F34E300190FFE7029867
:1003C000C0F3C9000090FFE701990098800761F32E
:1003D0004D104EF66071CEF2000108600098411E8B
:1003E00000910028F0D1FFE70198411E01910028FB
:1003F000E5D1FFE7BFF34F8F4EF61451CEF2000167
:10040000086840F480300860BFF34F8FBFF36F8FF0
:10041000FFE703B07047000090B00F900E910020EE
:100420000D908020C5F600000A90FFE70E98006846
:100430000D99C840002800F0CF81FFE70E980068B2
:100440000D9A0121914008400C900C98002800F072
:10045000BF81FFE70E98406800F00300012807D035
:10046000FFE70E98406800F0030002282FD1FFE755
:100470000F9880680B900D984100032000FA01F15D
:100480000B9888430B900E98C0680D99490000FAAC
:1004900001F10B9808430B900B980F9988600F9807
:1004A00040680B900D99012000FA01F10B988843E8
:1004B0000B900E984068C0F300100D9900FA01F1FE
:1004C0000B9808430B900B980F994860FFE70E9824
:1004D000406800F00300032818D0FFE70F98C068B9
:1004E0000B900D984100032000FA01F10B9888430E
:1004F0000B900E9880680D99490000FA01F10B9855
:1005000008430B900B980F99C860FFE70E9840685E
:1005100000F00300022826D1FFE70F980D996FF035
:10052000030202EA51010844006A0B900D9800F0A2
:10053000070081000F2000FA01F10B9888430B900F
:100540000E9800690D9901F00701890000FA01F188
:100550000B9808430B900B980F990D9B02EA5302DE
:1005600011440862FFE70F9800680B900D98410056
:10057000032000FA01F10B9888430B900E98406815
:1005800000F003000D99490000FA01F10B980843AF
:100590000B900B980F9908600E98807980070028BF
:1005A00000F01581FFE7FFE744F2F440C5F60200D2
:1005B000016841F002010160006800F0020009904A
:1005C0000998FFE70D9820F0030040F20841C5F6B6
:1005D000000140580B900D9800F0030081000F209F
:1005E00000FA01F10B9888430B900F980021C5F693
:1005F0000201884203D1FFE7002008907AE00F98BB
:1006000040F20041C5F60201884203D1FFE7012014
:1006100007906CE00F9840F60001C5F60201884291
:1006200003D1FFE7022006905EE00F9840F60041FC
:10063000C5F60201884203D1FFE70320059050E090
:100640000F9841F20001C5F60201884203D1FFE78D
:100650000420049042E00F9841F20041C5F60201E7
:10066000884203D1FFE70520039034E00F9841F65C
:100670000001C5F60201884203D1FFE7062002907F
:1006800026E00F9841F60041C5F60201884203D1E9
:10069000FFE70720019018E00F9842F20001C5F62D
:1006A0000201884203D1FFE7082000900AE00F9979
:1006B00042F20042C5F602020A20914208BF092018
:1006C0000090FFE700980190FFE701980290FFE794
:1006D00002980390FFE703980490FFE704980590C1
:1006E000FFE705980690FFE706980790FFE7079851
:1006F0000890FFE708980D9901F00301890000FABE
:1007000001F10B9808430B900B980D9921F0030110
:1007100040F20842C5F6000288504FF0B040006831
:100720000B900C990B9888430B900E988079C0061B
:10073000002805D5FFE70C990B9808430B90FFE7BD
:100740000B984FF0B04108600420C5F60000006827
:100750000B900C990B9888430B900E98807980062B
:10076000002805D5FFE70C990B9808430B90FFE78D
:100770000B980421C5F6000108600A9840680B90A8
:100780000C990B9888430B900E988079800700286D
:1007900005D5FFE70C990B9808430B90FFE70B98E2
:1007A0000A9948600A9800680B900C990B98884346
:1007B0000B900E988079C00728B1FFE70C990B9831
:1007C00008430B90FFE70B980A990860FFE7FFE7E3
:1007D0000D9801300D9029E610B070470000000020
:1007E00040F65860C2F20040006870470000000008
:1007F00080B582B0032000F7EBFA01F799FA44F2D2
:100800001842C5F602021168C1F3032344F6DE3133
:10081000C0F61001CB5C03F01F03D8400090009895
:10082000126802F00F02895C01F01F01C84040F21B
:100830000801C2F200410860009840F20401C2F2CF
:10084000004108600F20FFF6DFFF20B1FFE7012025
:100850008DF8070005E000F0D7F800208DF80700BC
:10086000FFE79DF8070002B080BD00000000000017
:1008700082B00090009820B9FFE701208DF80700B2
:100880001BE0009890F83D00022807D0FFE7009990
:100890008020886601208DF807000EE00099042072
:1008A00081F83D0000980168C86820F00100C86028
:1008B000FFE700208DF80700FFE79DF8070002B072
:1008C000704700000000000080B584B00290FFF780
:1008D00087FF0190029820B9FFE701208DF80F00F3
:1008E0003CE0FFE70299002081F83C00FFE7029915
:1008F000022081F83D0002980168C86820F00100DC
:10090000C860FFE702980068C068C00798B1FFE7B9
:10091000FFF766FF0199401A06280BD3FFE70299FB
:10092000402088660299032081F83D0001208DF85F
:100930000F0013E0E6E7029802F76AFB0299002035
:10094000C865029908660299486602998866029A03
:10095000012182F83D108DF80F00FFE79DF80F0090
:1009600004B080BD0000000080B582B00190019805
:1009700040784EF69851CEF2000108600198007858
:1009800098B3FFE7019840684EF69C51CEF2000103
:100990000860DDF804C0CDF800C09CF80C0000072A
:1009A0009CF80B1040EA01609CF800109CF80820AD
:1009B0009CF809309CF80AE040EACE409CF80DE033
:1009C00040EA8E409CF80EE040EA4E409CF80FC092
:1009D00040EA0C4040EA032040EA420008434EF659
:1009E000A051CEF2000108600BE04EF69C51CEF211
:1009F0000001002008604EF6A051CEF20001086010
:100A0000FFE702B080BD000070470000000000005A
:100A100080B586B0ADF816000491039203F0B0FBE8
:100A20000290BDF91600019002980499039A02F70A
:100A3000EBFB0146019803F0ABFB06B080BD000064
:100A400080B582B0019000208DF80300019890F8E5
:100A500041008007002855D5FFE7FFE701990020F6
:100A600081F84000FFE70199082081F841000198D2
:100A70000168086820F4F8100860019800680068B0
:100A8000400700281CD5FFE701980168086820F09E
:100A9000040008600198C16B43F21120C0F61000F9
:100AA00088650198C06BFFF7E3FE40B1FFE701994D
:100AB000012081F84100019800F792F9FFE720E05A
:100AC00001980068806800F020010020B0EB511F01
:100AD00011D0FFE7019801680220C8600198016801
:100AE000086840F40030086001980168086840F028
:100AF0000200086004E00199012081F84100FFE74D
:100B0000FFE7FFE79DF8030002B080BD0000000092
:100B100080B588B0069005910492FFF761FE0290BF
:100B20000598806908B1FFE7FFE70598C06908B13B
:100B3000FFE7FFE70598006A08B1FFE7FFE7FFE777
:100B4000069890F84000012804D1FFE702208DF8B4
:100B50001F006FE00699012081F84000FFE7FFE7E2
:100B6000069890F84100012855D1FFE70698002229
:100B700042640699422081F841000698029B816CEC
:100B8000EC46CCF80010202102F7A2FB8DF80F00F4
:100B90009DF80F00B8BBFFE7049800680699096844
:100BA00088620498406806990968486204988068D9
:100BB00006990968C86206980068006820F4400039
:100BC000049A11695269114308430699096808603B
:100BD000069801680920C8600498C0680599886271
:100BE000069805994FF0006202F092F9FFE7069926
:100BF000002081F84000FFE706980168086840F48B
:100C00001020086006E0FFE70699002081F8400008
:100C1000FFE7FFE709E002208DF80F00FFE70699E4
:100C2000002081F84000FFE7FFE79DF80F008DF8F6
:100C30001F00FFE79DF81F0008B080BD0000000006
:100C400080B588B0069005910492FFF7C9FD029027
:100C50000598806908B1FFE7FFE70598C06908B10A
:100C6000FFE7FFE70598006A08B1FFE7FFE7FFE746
