:020000040800F2
:1000000070120024AD020008B92B1008D14A000874
:10001000B12B1008F9011008094600080000000083
:100020000000000000000000000000006939000826
:10003000E1021008000000001935000849341008DA
:10004000C7020008C7020008C7020008C70200086C
:10005000C7020008C7020008C7020008C70200085C
:10006000C7020008C7020008C7020008C70200084C
:10007000C7020008C7020008C7020008C70200083C
:10008000C7020008C7020008C7020008C70200082C
:10009000C7020008C7020008C7020008C70200081C
:1000A000C7020008C7020008C7020008C70200080C
:1000B00009381008C7020008C7020008C702000874
:1000C000C7020008C7020008C7020008C7020008EC
:1000D000C7020008313C1008C7020008C702000828
:1000E000C7020008C702000800000000C70200089D
:1000F000C7020008C7020008C7020008C7020008BC
:10010000C7020008C7020008C7020008C7020008AB
:10011000C7020008C702000839391008C7020008E2
:10012000C7020008C7020008C7020008C70200088B
:10013000C7020008C7020008C7020008C70200087B
:1001400000000000000000000000000000000000AF
:10015000C7020008C7020008C7020008C70200085B
:10016000C7020008C7020008C7020008C70200084B
:10017000C7020008C7020008C7020008000000000C
:10018000C7020008C7020008C7020008C70200082B
:10019000C7020008C7020008C7020008C70200081B
:1001A000C7020008C7020008C7020008C70200080B
:1001B00089370008C7020008C7020008C702000804
:1001C000C7020008C7020008C7020008C7020008EB
:1001D000C7020008C7020008C7020008C7020008DB
:1001E000C7020008C7020008C7020008C7020008CB
:1001F000C7020008C7020008C7020008C7020008BB
:10020000C7020008C7020008C7020008C7020008AA
:10021000C7020008C7020008C7020008C70200089A
:10022000C7020008C7020008A13300080000000050
:10023000C7020008C702000800000000C70200084B
:10024000C7020008C7020008C7020008C70200086A
:10025000C7020008C7020008C7020008C70200085A
:10026000C7020008C7020008C7020008C70200084A
:10027000C7020008C7020008C7020008000000000B
:10028000C7020008C7020008C702000800000000FB
:1002900000000000C7020008DFF80CD000F062F98F
:1002A0000048004711421008701200240648804799
:1002B00006480047FEE7FEE7FEE7FEE7FEE7FEE74B
:1002C000FEE7FEE7FEE7FEE7A93610089902000800
:1002D0002DE9F05F0546002092469B46884606467B
:1002E000814640241BE0284641464746224600F00E
:1002F0002FF853465A46C01A914110D3114618465A
:10030000224600F016F82D1A67EB01084F462246E8
:100310000120002100F00DF817EB00094E41201ECE
:10032000A4F10104DFDC484631462A464346BDE8D5
:10033000F09F202A04DB203A00FA02F100207047E7
:100340009140C2F1200320FA03F319439040704713
:10035000202A04DB203A21FA02F00021704721FA1A
:1003600002F3D040C2F12002914008431946704781
:100370002DE9FE4F81EA030404F0004421F000411E
:1003800000944FF0000B23F0004350EA01045ED0CC
:1003900052EA03045BD0C3F30A54C1F30A552C4458
:1003A000A4F2F3340194A0FB0254C1F3130141F40D
:1003B0008011C3F3130343F4801301FB024400FBD9
:1003C000034E840A970A44EA815447EA8357A4FB00
:1003D000076802958D0A05FB07854FEA932C04FBFD
:1003E0000C542705029D4FEA065847EA1637B5EB2D
:1003F00008056EEB070C870E920E47EA811742EA5A
:100400008312A7FB0201B6EB0B0164EB00042B0D7A
:1004100043EA0C335E1844EB1C50DA465146E7FBC6
:100420000201C5F313044FEA0B3343EA14534FEAB6
:100430000432019C43EA0603A4F10C040294009CDC
:10044000CDE900B400F0B5F803B0BDE8F08F0020AE
:100450000146F9E72DE9F04D81EA030404F0004B71
:1004600021F0004514464FF0000A23F0004150EA05
:10047000050220D054EA01021DD0C5F30A570246F6
:10048000C5F31303C1F31300C1F30A5640F48015FA
:1004900043F48013A7EB0608101BD64608F2FD387C
:1004A00073EB050002D308F1010801E092185B41EB
:1004B000B8F1000F03DA00200146BDE8F08D0020FE
:1004C0004FF48011064684460EE0171B73EB0507B8
:1004D00005D3121B63EB050306434CEA010C4908E4
:1004E0004FEA300092185B4150EA0107EDD152EA21
:1004F000030012D082EA040083EA0501084305D014
:10050000101BAB4106D20122002306E000224FF06F
:10051000004302E06FF0010253101AEB06004CEBAF
:10052000085110EB0A0041EB0B01BDE8F04D00F063
:1005300031B8000030B5041E71F1000404DB4FF047
:100540000044404264EB0101141E73F1000405DB1A
:100550001C464FF00043524263EB0403994208BF2C
:10056000904230BD1CB509480090094801900546ED
:10057000009C06E0E06840F0010394E8070098471B
:100580001034AC42F6D3FFF78BFE0000404D00085C
:10059000604D000810B5141E73F1000408DA401C09
:1005A00041F1000192185B411A4301D120F0010092
:1005B00010BD2DE9F04D92469B4611B1B1FA81F282
:1005C00002E0B0FA80F220329046FFF7B2FE044615
:1005D0000F4640EA0A0041EA0B0153465A460843D7
:1005E00013D0114653EA010019D0C8F14002504619
:1005F000FFF7AEFE05460E46504659464246FFF707
:1006000098FE084305D0012004E020463946BDE8A5
:10061000F08D0020054346EAE0762C4337430A98E4
:100620006305E40AA0EB08000022FD0A44EA4754EF
:100630000A3002D500200146E9E701051019694199
:10064000DDE9084500196941BDE8F04DA2E7000069
:1006500090B00F900E9100200D908020C5F6000004
:100660000A90FFE70E980D99C840002800F011810C
:10067000FFE70E980D9A0121914008400C900C98CC
:10068000002800F00281FFE70D9820F0030040F2FF
:100690000841C5F6000140580B900D9800F003008A
:1006A00081000F2000FA01F10B9808400B900B9885
:1006B00009900F980021C5F60201884203D1FFE797
:1006C000002008907AE00F9840F20041C5F6020140
:1006D000884203D1FFE7012007906CE00F9840F6B5
:1006E0000001C5F60201884203D1FFE7022006900F
:1006F0005EE00F9840F60041C5F60201884203D142
:10070000FFE70320059050E00F9841F20001C5F685
:100710000201884203D1FFE70420049042E00F98D1
:1007200041F20041C5F60201884203D1FFE70520EE
:10073000039034E00F9841F60001C5F602018842AB
:1007400003D1FFE70620029026E00F9841F6004112
:10075000C5F60201884203D1FFE70720019018E0A7
:100760000F9842F20001C5F60201884203D1FFE76B
:10077000082000900AE00F9942F20042C5F60202FA
:100780000A20914208BF09200090FFE700980190DD
:10079000FFE701980290FFE702980390FFE70398B4
:1007A0000490FFE704980590FFE705980690FFE79F
:1007B00006980790FFE707980890FFE709980899BF
:1007C0000D9A02F003029200914088422AD1FFE77D
:1007D0000C9A0A990868904308600C9A0A9948682C
:1007E000904348600C9A0421C5F6000108689043C4
:1007F00008600C9A4FF0B0410868904308600D986B
:1008000000F0030081000F2088400B900B9B0D9897
:1008100020F0030140F20842C5F6000288589843D0
:100820008850FFE70D984100032000FA01F30F9A6A
:10083000116819431160DDF834C00CF007018A001B
:100840000F2101FA02F30F996FF0030202EA5C0232
:100850000A44116A994311620D99490000FA01F3A3
:100860000F9AD1689943D1600D9A012101FA02F3E0
:100870000F9A5168994351600D99490000FA01F2AD
:100880000F99886890438860FFE70D9801300D90BC
:10089000E8E610B07047000082B00190ADF8021099
:1008A0008DF801209DF8010028B1FFE7BDF8020096
:1008B0000199886105E0BDF8020000040199886192
:1008C000FFE702B07047000041F20000C5F60040AB
:1008D0000068000C7047000080B582B0032000F073
:1008E000DBFA01F07DFC44F21842C5F60202116801
:1008F000C1F3032344F65631C0F61001CB5C03F07C
:100900001F03D84000900098126802F00F02895C23
:1009100001F01F01C84040F20801C2F20041086026
:10092000009840F20401C2F2004108600F20FFF07D
:100930001BFF20B1FFE701208DF8070005E000F064
:100940009BFA00208DF80700FFE79DF8070002B032
:1009500080BD00000000000082B00090009820B927
:10096000FFE701208DF807001BE0009890F83D009C
:10097000022807D0FFE700998020886601208DF8C3
:1009800007000EE00099042081F83D0000980168FE
:10099000C86820F00100C860FFE700208DF807005C
:1009A000FFE79DF8070002B070470000000000005C
:1009B00083B00190019820B9FFE701208DF80B006A
:1009C0003EE001980168C86820F00100C860019805
:1009D000016800200090C8600199096808610199C8
:1009E0000968486101990968886101990968C861C5
:1009F00001990968086201990968486201990968C2
:100A00008862019909680863019909684863019936
:100A10000A681F2151600199C8650199086601990A
:100A2000486601998866019981F83D00FFE70199C0
:100A3000002081F83C00FFE700208DF80B00FFE765
:100A40009DF80B0003B0704780B586B0059000207C
:100A5000049040F20400C2F20040006848F2B51170
:100A6000C1F64E31A0FB0110800A03900598006882
:100A70004FF6C071CAF6FF510844C0F3841101203B
:100A8000884002904FF0A44000680299084201D1CA
:100A9000FFE735E1059800680068C007002858D0D6
:100AA000FFE705980068C0688007002850D5FFE779
:100AB00005980168C86820F00200C86005980068C1
:100AC000806801909DF804000006002806D4FFE726
:100AD0000599886E40F00100886605E00599886EEA
:100AE00040F002008866FFE79DF8050080070028B7
:100AF00006D5FFE70599886E40F004008866FFE799
:100B00009DF80500C00730B1FFE70599886E40F0F9
:100B100008008866FFE79DF805004007002806D515
:100B2000FFE70599886E40F010008866FFE79DF8A2
:100B300005000007002806D5FFE70599886E40F0FC
:100B400020008866FFE70598016801204860FFE7FC
:100B5000FFE7059800680068C006002815D5FFE784
:100B600005980068C068800600280DD5FFE7059845
:100B70000168102048600598806C20B1FFE7059857
:100B8000816C8847FFE7FFE7FFE70598006800688A
:100B90000007002815D5FFE705980068C068C00663
:100BA00000280DD5FFE705980168082048600598E2
:100BB000C06C20B1FFE70598C16C8847FFE7FFE7ED
:100BC000FFE70598006800684007002815D5FFE793
:100BD00005980068C068000700280DD5FFE7059854
:100BE0000168042048600598006D20B1FFE7059872
:100BF000016D8847FFE7FFE7FFE705980068006899
:100C0000800700283ED5FFE705980068C0684007C8
:100C1000002836D5FFE705980168C86820F03E0037
:100C2000C860059890F83D00042813D1FFE7FFE75E
:100C30000599002081F83C00FFE70599012081F823
:100C40003D000598806D20B1FFE70598816D8847CC
:100C5000FFE755E00598016802204860FFE7059925
:100C6000002081F83C00FFE70599012081F83D0054
:100C70000598406C20B1FFE70598416C8847FFE775
:100C8000FFE7FFE70598806ED0B3FFE705990420E2
:100C900081F83D0005980168C86820F00100C8602F
:100CA000FFE70498013004900399884201D9FFE7D7
:100CB00007E0FFE705980068C068C0070028F0D18A
:100CC000FFE7FFE70599002081F83C00FFE7059862
:100CD0000068C068C00728B1FFE70599032081F8C4
:100CE0003D0004E00599012081F83D00FFE70598EB
:100CF000406D20B1FFE70598416D8847FFE7FFE7AA
:100D000006B080BD0000000080B586B0DDF820C0D0
:100D10000490039102920193049820B9FFE7012007
:100D20008DF8170077E0FFE7049890F83C00012861
:100D300004D1FFE702208DF817006CE00499012030
:100D400081F83C00FFE7FFE7049890F83D00012898
:100D500053D1FFE70499022081F83D000499002057
:100D6000886604980168C86820F00100C86004988B
:100D70000399029A019BDDF820C0EE46CEF800C030
:100D800002F01AFB04980168C86840F00600C860C9
:100D90000498C06C38B1FFE704980168C86840F057
:100DA0001000C860FFE70498006D38B1FFE70498B1
:100DB0000168C86840F00800C860FFE70498806CCC
:100DC00038B1FFE704980168C86840F02000C860A7
:100DD000FFE704980168C86840F00100C860049803
:100DE0004068B0F1804F07D1FFE704980168C868F8
:100DF00040F48030C860FFE709E0FFE70499002075
:100E000081F83C00FFE702208DF8170003E0002086
:100E10008DF81700FFE79DF8170006B080BD0000B1
:100E2000BFF35F8F4EF62451CEF20001086820F424
:100E3000803008604EF69451CEF200010020086028
:100E4000704700000000000081B00090009840F062
:100E500001004EF69451CEF2000108604EF6245186
:100E6000CEF20001086840F480300860BFF34F8F75
:100E7000BFF36F8F01B070477047000000000000A3
:100E800080B582B0ADF80600BDF9060003F184F824
:100E900002B080BD0000000080B582B001900198D2
:100EA00003F0E6FB02B080BD80B588B006900591E6
:100EB0000492FFF041FC02900598806908B1FFE7B9
:100EC000FFE70598C06908B1FFE7FFE70598006AEA
:100ED00008B1FFE7FFE7FFE7069890F84000012818
:100EE00004D1FFE702208DF81F006FE00699012072
:100EF00081F84000FFE7FFE7069890F841000128DD
:100F000055D1FFE70698002242640699422081F8F5
:100F100041000698029B816CEC46CCF80010202121
:100F200002F0F2FB8DF80F009DF80F00B8BBFFE751
:100F300004980068069909688862049840680699D0
:100F4000096848620498806806990968C86206982A
:100F50000068006820F44000049A11695269114346
:100F60000843069909680860069801680920C86066
:100F70000498C06805998862069805994FF0006248
:100F800001F196FEFFE70699002081F84000FFE797
:100F900006980168086840F41020086006E0FFE742
:100FA0000699002081F84000FFE7FFE709E00220F2
:100FB0008DF80F00FFE70699002081F84000FFE759
:100FC000FFE79DF80F008DF81F00FFE79DF81F0059
:100FD00008B080BD0000000080B588B00690059183
:100FE0000492FFF0A9FB02900598806908B1FFE721
:100FF000FFE70598C06908B1FFE7FFE70598006AB9
:1010000008B1FFE7FFE7FFE7069890F840000128E6
:1010100004D1FFE702208DF81F0059E00699012056
:1010200081F84000FFE7FFE7069890F841000128AB
:101030003FD1FFE70698002242640699022081F81A
:1010400041000698029B0499EC46CCF80010202140
:1010500002F05AFB8DF80F009DF80F0040BBFFE730
:1010600006980599002201F123FE0598406AC8B947
:10107000FFE70698029B04996A461160022101224B
:1010800002F042FB8DF80F009DF80F0048B9FFE712
:10109000069801680220C8600699012081F8410085
:1010A000FFE704E00699012081F84100FFE7FFE730
:1010B00003E002208DF80F00FFE7FFE7069900200C
:1010C00081F84000FFE79DF80F008DF81F00FFE753
:1010D0009DF81F0008B080BD80B586B004900391D4
:1010E000FFF02AFB01900398806908B1FFE7FFE752
:1010F0000398C06908B1FFE7FFE70398006A08B1E9
:10110000FFE7FFE7FFE7049890F84000012804D1CB
:10111000FFE702208DF8170063E00499012081F8B1
:101120004000FFE7FFE7049890F84100012849D10B
:10113000FFE70498002242640499022081F84100EC
:101140000498019B816CEC46CCF80010202102F041
:10115000DBFA8DF80B009DF80B0058BBFFE70398F6
:10116000406A28B9FFE7049801680320C860FFE7D8
:1011700004980399002201F19BFD0398406A68B925
:10118000FFE7FFE70499002081F84000FFE704989B
:101190000168086840F4403008600AE004990120C2
:1011A00081F84100FFE70499002081F84000FFE743
:1011B000FFE706E0FFE70499002081F84000FFE721
:1011C000FFE709E002208DF80B00FFE704990020FB
:1011D00081F84000FFE7FFE79DF80B008DF817004E
:1011E000FFE79DF8170006B080BD0000000000007A
:1011F00081B0009001B0704781B0009001B070479D
:1012000080B59AB01990FFE744F2D440C5F60200C9
:10121000016841F480410160006800F4804013904F
:101220001398FFE744F27C41C5F60201086840F4D8
:1012300080400860086820F480400860FFE744F2BE
:10124000E040C5F60200016841F04001016000681D
:1012500000F0400012901298FFE7FFE744F2E040F0
:10126000C5F60200016841F020010160006800F04D
:10127000200011901198FFE7FFE744F2E040C5F627
:101280000200016841F020010160006800F02000C8
:1012900010901098FFE7FFE744F2E040C5F6020027
:1012A000016841F020010160006800F020000F900B
:1012B0000F98FFE7FFE744F2E040C5F6020001683F
:1012C00041F020010160006800F020000E900E98AF
:1012D000FFE7FFE744F2E040C5F60200016841F095
:1012E00020010160006800F020000D900D98FFE7DC
:1012F00040200690149002201590012016900320A3
:1013000017900A200590189041F60000C5F60200DB
:1013100014A90991FFF02CF809994FF480601490FA
:1013200000200A90169009200790189041F2004082
:10133000C5F602000890FFF01BF8059A0898099975
:101340004FF4807314931892FFF012F8059A0898DE
:1013500009994FF4007314931892FFF009F8079A53
:1013600008980999802314931892FFF001F8069BBE
:10137000079A0898099914931892FEF0F9FF0A9AAF
:101380005C200B900F21FFF003FB0B98FFF778FD1B
:10139000FFE744F2D440C5F60200016841F00101C4
:1013A0000160006800F001000C900C98FFE740F627
:1013B0005451C2F2004103918020C5F20020086020
:1013C000162048600020049088608022CA6008616E
:1013D00002234B618861C86108624FF000734B6261
:1013E0008A62C862086348638863FFE7199840F619
:1013F0005451C2F20041C16319980864FFE740F6F6
:101400005450C2F200400190FFF7D2FA0198FFF069
:101410001FFA7A20029002210022FFF0B9FA029806
:10142000FFF72EFD1AB080BD80B58AB008900791F5
:10143000069200208DF81700FFF07EF904900898BE
:101440000068806903900898006820300290FFE7E8
:10145000089890F84000012804D1FFE702208DF899
:1014600027008CE00899012081F84000FFE7FFE7A2
:10147000089890F84100012872D1FFE708990020F0
:1014800048640798002861D0FFE70899222081F876
:10149000410008980068006901300899886308983D
:1014A0000068006901300899486307980899086343
:1014B000089800684069012161F39B6008990968F8
:1014C00048610398089909688861FFE70898806B6C
:1014D000F0B1FFE70898049B06996A46116006215F
:1014E000012202F011F98DF817009DF8170008B1DC
:1014F000FFE70DE0029800780899096B08700899D9
:10150000086B013008630899886B01388863DDE750
:101510009DF81700A8B9FFE70898049B06996A464A
:1015200011600221012202F0EFF88DF817009DF8FA
:10153000170028B9FFE7089801680220C860FFE794
:10154000FFE70899012081F8410008E00899486CFC
:1015500040F00800486401208DF81700FFE703E021
:1015600002208DF81700FFE7FFE70899002081F8B7
:101570004000FFE79DF817008DF82700FFE79DF872
:1015800027000AB080BD000080B588B006900591A4
:1015900000208DF813000698006880690390069873
:1015A0000068006901300290FFE7069890F840005B
:1015B000012804D1FFE702208DF81F00E8E006991A
:1015C000012081F84000FFE7FFE7069890F841000E
:1015D000012840F0CE80FFE7069900204864059876
:1015E000002800F0B680FFE7029806998863069904
:1015F000222081F84100069801680320C8600698FF
:10160000806B069948630598069908630698C16B34
:1016100043F27950C0F6000048640698C16B42F668
:10162000B170C0F6100048650698C16B002088654F
:101630000698C06B0068006940F203318843069940
:10164000C96B096808610698C06B006A68B9FFE752
:101650000698C06B0068006940F60C41884308306A
:101660000699C96B0968086132E00698C06B006A88
:1016700040280ED1FFE70698C06B0068006940F66D
:101680000C41884300F581600699C96B09680861BF
:101690001DE00698C06B006A80280ED1FFE706980F
:1016A000C06B0068006940F60C41884300F60800F2
:1016B0000699C96B0968086108E00699486C40F012
:1016C0000400486401208DF81300FFE7FFE7FFE7FF
:1016D0000698006840694FF0010C6CF39B60069916
:1016E000096848610398069909688861069B19682A
:1016F000D86B2031059A5B6BEE46CEF800C0FFF741
:1017000003FB98B9FFE7FFE70699002081F8400046
:10171000FFE706980168086840F480300860069882
:101720000168086840F00400086011E001208DF8AD
:101730001300069A516C41F004015164069981F836
:101740004100FFE70699002081F84000FFE7FFE72E
:101750000EE00699486C40F00800486401208DF8BE
:101760001300FFE70699002081F84000FFE7FFE73C
:1017700009E002208DF81300FFE70699002081F8A8
:101780004000FFE7FFE79DF813008DF81F00FFE71B
:101790009DF81F0008B080BD82B0019000910098B4
:1017A0000199886402B0704780B586B004900391B7
:1017B00000208DF80B00049800680069013001904A
:1017C000FFE7049890F84000012804D1FFE70220C9
:1017D0008DF81700E4E00499012081F84000FFE74C
:1017E000FFE7049890F84100012840F0CA80FFE725
:1017F0000499002048640398002800F0B280FFE7B5
:1018000001980499C8620499122081F84100049853
:1018100001680320C8600498C06A0499886203982C
:101820000499486204980068406920F04060049977
:10183000096848610498C16B42F6E970C0F610006F
:1018400048640498C16B42F6B170C0F61000486558
:101850000498C16B002088650498C06B006800691B
:1018600040F60C4188430499C96B096808610498E3
:10187000C06BC06968B9FFE70498C06B0068006975
:1018800040F20331884302300499C96B096808614A
:1018900032E00498C06BC06910280ED1FFE70498AD
:1018A000C06B0068006940F20331884300F5817025
:1018B0000499C96B096808611DE00498C06BC06990
:1018C00020280ED1FFE70498C06B0068006940F241
:1018D0000331884300F202200499C96B096808614A
:1018E00008E00499486C40F00400486401208DF839
:1018F0000B00FFE7FFE7FFE7049B1A68D86B03992B
:1019000020329B6AEE464FF0010CCEF800C0FFF784
:10191000FBF998B9FFE7FFE70499002081F8400040
:10192000FFE704980168086840F480300860049874
:101930000168086840F00400086011E001208DF89B
:101940000B00049A516C41F004015164049981F830
:101950004100FFE70499002081F84000FFE7FFE71E
:101960000EE00499486C40F00800486401208DF8AE
:101970000B00FFE70499002081F84000FFE7FFE734
:1019800009E002208DF80B00FFE70499002081F8A0
:101990004000FFE7FFE79DF80B008DF81700FFE719
:1019A0009DF8170006B080BD81B0009040F2001194
:1019B000C2F2004108780130087001B070470000A1
:1019C00080B500F1CDFC44F22041C5F60201096862
:1019D000C1F3021244F65631C0F61001895C01F0E1
:1019E0001F01C84080BD000088B0079044F2284025
:1019F000C5F60200016801F0030106910068C0F31A
:101A00000530059044F22C40C5F602000068C0F392
:101A100000100490049844F23C41C5F602010968A4
:101A200089B2C908484300EE100AB8EE400A8DEDAD
:101A3000020A0598002800F01B81FFE70698009035
:101A400048B1FFE70098012869D0FFE70098022815
:101A500000F08980ABE044F20040C5F60200006867
:101A600000F020010020B0EB511F33D0FFE744F21B
:101A70000040C5F602000068C0F3C10149F2000051
:101A8000C0F2D030C84003909DED030AB8EE400A82
:101A90009DED051AB8EE411A80EE010A44F2384075
:101AA000C5F6020000686FF35F2001EE100AB8EE81
:101AB000411A9DED022A9FED743A82EE032A31EE1F
:101AC000021AB7EE002A31EE021A20EE010A8DED5D
:101AD000010A23E09DED050AB8EE401A9FED6C0A5D
:101AE00080EE010A44F23840C5F6020000686FF348
:101AF0005F2001EE100AB8EE411A9DED022A9FED1B
:101B0000623A82EE032A31EE021AB7EE002A31EE73
:101B1000021A20EE010A8DED010AFFE76BE09DED50
:101B2000050AB8EE401A9FED590A80EE010A44F208
:101B30003840C5F6020000686FF35F2001EE100A1E
:101B4000B8EE411A9DED022A9FED4F3A82EE032A2C
:101B500031EE021AB7EE002A31EE021A20EE010A27
:101B60008DED010A47E09DED050AB8EE401A9FEDA4
:101B7000450A80EE010A44F23840C5F602000068CA
:101B80006FF35F2001EE100AB8EE411A9DED022AB4
:101B90009FED3D3A82EE032A31EE021AB7EE002A9B
:101BA00031EE021A20EE010A8DED010A23E09DEDCF
:101BB000050AB8EE401A9FED350A80EE010A44F29C
:101BC0003840C5F6020000686FF35F2001EE100A8E
:101BD000B8EE411A9DED022A9FED2B3A82EE032AC0
:101BE00031EE021AB7EE002A31EE021A20EE010A97
:101BF0008DED010AFFE79DED010A44F23840C5F67C
:101C00000200016889B2490A01EE101AB8EE411AC1
:101C1000B7EE002A31EE021A80EE010A0799BCEEF7
:101C2000C00A81ED000A9DED010A0168C1F3064179
:101C300001EE101AB8EE411A31EE021A80EE010AD6
:101C40000799BCEEC00A81ED010A9DED010A00680A
:101C5000C0F3066001EE100AB8EE411A31EE021A26
:101C600080EE010A0798BCEEC00A80ED020A07E088
:101C70000799002008600799486007998860FFE786
:101C800008B0704720BCBE4B000000460024744AD8
:101C90000024744C0000000080B586B004900391CD
:101CA000049820B9FFE701208DF817003CE2039863
:101CB00042F20001C5F20021096801F00F018842DB
:101CC00016D9FFE742F20000C5F20020016821F0BA
:101CD0000F01039A11430160006800F00F0003999F
:101CE000884204D0FFE701208DF817001CE2FFE7CF
:101CF000049800784007002819D5FFE70498006988
:101D000044F21841C5F60201096801F070018842E9
:101D10000CD9FFE744F21841C5F60201086820F02B
:101D20007000049A126910430860FFE7FFE7049807
:101D300000780007002819D5FFE70498406944F2AD
:101D40001C41C5F60201096801F0700188420CD9F6
:101D5000FFE744F21C41C5F60201086820F070005C
:101D6000049A526910430860FFE7FFE7049800787F
:101D7000C006002819D5FFE70498806944F21C4189
:101D8000C5F60201096801F4E06188420CD9FFE759
:101D900044F21C41C5F60201086820F4E060049A90
:101DA000926910430860FFE7FFE704980078800617
:101DB000002819D5FFE70498C06944F22041C5F610
:101DC0000201096801F0700188420CD9FFE744F272
:101DD0002041C5F60201086820F07000049AD2691B
:101DE00010430860FFE7FFE70498007880070028A9
:101DF00019D5FFE70498C06844F21841C5F60201FE
:101E0000096801F00F0188420CD9FFE744F218413C
:101E1000C5F60201086820F00F00049AD26810434A
:101E20000860FFE7FFE704980078C007002800F08B
:101E30008C80FFE744F21841C5F60201086820F4DF
:101E40007060049A92681043086004984068022801
:101E500011D1FFE744F20040C5F60200006800F42B
:101E600000310020B0EB514F04D1FFE701208DF885
:101E7000170059E13EE004984068032811D1FFE7BC
:101E800044F20040C5F60200006800F00071002036
:101E9000B0EB516F04D1FFE701208DF8170043E14B
:101EA00027E004984068012811D1FFE744F2004080
:101EB000C5F60200006800F480710020B0EB112F1D
:101EC00004D1FFE701208DF817002DE110E044F266
:101ED0000040C5F60200006800F004010020B0EBED
:101EE000910F04D1FFE701208DF817001CE1FFE7F7
:101EF000FFE7FFE744F21041C5F60201086820F051
:101F00000700049A526810430860FEF015FC019027
:101F1000FFE744F21040C5F60200006800F0380008
:101F200004994968B0EBC10F0ED0FFE7FEF004FC46
:101F30000199401A41F28931884204D3FFE7032016
:101F40008DF81700F0E0E4E7FFE7049800788007D9
:101F5000002819D5FFE70498C06844F21841C5F677
:101F60000201096801F00F0188420CD2FFE744F238
:101F70001841C5F60201086820F00F00049AD268E3
:101F800010430860FFE7FFE7039842F20001C5F243
:101F90000021096801F00F01884216D2FFE742F2E2
:101FA0000000C5F20020016821F00F01039A1143DF
:101FB0000160006800F00F000399884204D0FFE739
:101FC00001208DF81700AFE0FFE704980078400784
:101FD000002819D5FFE70498006944F21841C5F6B6
:101FE0000201096801F0700188420CD2FFE744F257
:101FF0001841C5F60201086820F07000049A1269C1
:1020000010430860FFE7FFE7049800780007002806
:1020100019D5FFE70498406944F21C41C5F6020156
:10202000096801F0700188420CD2FFE744F21C41BC
:10203000C5F60201086820F07000049A5269104346
:102040000860FFE7FFE704980078C006002819D56C
:10205000FFE70498806944F21C41C5F60201096853
:1020600001F4E06188420CD2FFE744F21C41C5F65E
:102070000201086820F4E060049A92691043086045
:10208000FFE7FFE7049800788006002819D5FFE7EE
:102090000498C06944F22041C5F60201096801F0C4
:1020A000700188420CD2FFE744F22041C5F60201DC
:1020B000086820F07000049AD26910430860FFE7B6
:1020C000FFE700F08DF844F21842C5F602021168ED
:1020D000C1F3032344F65631C0F61001CB5C03F084
:1020E0001F03D84000900098126802F00F02895C2C
:1020F00001F01F01C84040F20801C2F2004108602F
:10210000009840F20401C2F20041086040F2100061
:10211000C2F200400068FEF027FB8DF80B009DF82E
:102120000B008DF81700FFE79DF8170006B080BD83
:1021300082B00190009101993F20086044F2104064
:10214000C5F60200006800F007000199486044F2FB
:102150001840C5F60200016801F47061019A9160AF
:10216000016801F00F01019AD160006800F0700071
:102170000199086144F21C40C5F60200016801F0B3
:102180007001019A5161006800F4E0600199886172
:1021900044F22040C5F60200006800F0700001998A
:1021A000C86142F20000C5F20020006800F00F0094
:1021B0000099086002B0704780B500F1D1F844F290
:1021C0001C41C5F602010968C1F3021244F65631FA
:1021D000C0F61001895C01F01F01C84080BD0000FD
:1021E0008AB044F21040C5F60200006800F03800E2
:1021F00001460191182800F269810199DFE811F088
:1022000019006601660166016601660166016601E4
:102210003A006601660166016601660166016601B3
:10222000400066016601660166016601660166019D
:10223000460044F20040C5F60200006800F02001AC
:102240000020B0EB511F0ED0FFE744F20040C5F66E
:1022500002000068C0F3C10149F20000C0F2D030B2
:10226000C840029005E049F20000C0F2D030029070
:10227000FFE731E140F60010C0F23D0002902BE193
:1022800047F64000C0F27D10029025E144F228405C
:10229000C5F60200016801F0030108910068C0F36F
:1022A0000510079044F22C40C5F60200006800F0CB
:1022B00001000690069844F23441C5F6020109680F
:1022C00089B2C908484300EE100AB8EE400A8DED05
:1022D000040A0798002800F0F580FFE708980090AE
:1022E00048B1FFE70098012869D0FFE7009802286D
:1022F00000F08980ABE044F20040C5F602000068BF
:1023000000F020010020B0EB511F33D0FFE744F272
:102310000040C5F602000068C0F3C10149F20000A8
:10232000C0F2D030C84005909DED050AB8EE400AD5
:102330009DED071AB8EE411A80EE010A44F23040D2
:10234000C5F6020000686FF35F2001EE100AB8EED8
:10235000411A9DED042A9FED633A82EE032A31EE85
:10236000021AB7EE002A31EE021A20EE010A8DEDB4
:10237000030A23E09DED070AB8EE401A9FED5B0AC1
:1023800080EE010A44F23040C5F6020000686FF3A7
:102390005F2001EE100AB8EE411A9DED042A9FED70
:1023A000513A82EE032A31EE021AB7EE002A31EEDC
:1023B000021A20EE010A8DED030AFFE76BE09DEDA6
:1023C000070AB8EE401A9FED480A80EE010A44F26F
:1023D0003040C5F6020000686FF35F2001EE100A7E
:1023E000B8EE411A9DED042A9FED3E3A82EE032A93
:1023F00031EE021AB7EE002A31EE021A20EE010A7F
:102400008DED030A47E09DED070AB8EE401A9FEDF7
:10241000340A80EE010A44F23040C5F6020000683A
:102420006FF35F2001EE100AB8EE411A9DED042A09
:102430009FED2C3A82EE032A31EE021AB7EE002A03
:1024400031EE021A20EE010A8DED030A23E09DED24
:10245000070AB8EE401A9FED240A80EE010A44F202
:102460003040C5F6020000686FF35F2001EE100AED
:10247000B8EE411A9DED042A9FED1A3A82EE032A26
:1024800031EE021AB7EE002A31EE021A20EE010AEE
:102490008DED030AFFE744F23040C5F60200006804
:1024A00081B2012000EB512009909DED030A9DEDC2
:1024B000091AB8EE411A80EE010ABCEEC00A8DED91
:1024C000020A02E000200290FFE705E040F600105B
:1024D000C0F23D000290FFE702980AB0704700BFCB
:1024E00020BCBE4B000000460024744A0024744CFB
:1024F00080B58CB00A900A9828B9FFE701208DF8C2
:102500002F0000F09DBD0A980078C007002800F059
:10251000B980FFE744F21040C5F60200006800F001
:102520003800069044F22840C5F602000068059085
:10253000069810280AD0FFE7069818281CD1FFE754
:10254000059800F00300022816D1FFE744F200408E
:10255000C5F60200006800F400310020B0EB514FD6
:1025600009D0FFE70A98406828B9FFE701208DF8F5
:102570002F0000F065BD84E0FFE70A984068B0F5E1
:10258000803F09D1FFE744F20041C5F60201086827
:1025900040F48030086032E00A98406868B9FFE78C
:1025A00044F20041C5F60201086820F4803008605A
:1025B000086820F48020086020E00A984068B0F5A0
:1025C000A02F0DD1FFE744F20041C5F602010868D3
:1025D00040F480200860086840F4803008600CE017
:1025E00044F20041C5F60201086820F4803008601A
:1025F000086820F480200860FFE7FFE7FFE7FFE7B7
:102600000A984068F0B1FFE7FEF096F80990FFE7FE
:1026100044F20040C5F60200006800F400310020DA
:10262000B0EB514F0DD1FFE7FEF086F80999401A43
:10263000652805D3FFE703208DF82F0000F000BDCB
:10264000E6E71DE0FEF078F80990FFE744F200406D
:10265000C5F60200006800F400310020B0EB514FD5
:102660000DD0FFE7FEF068F80999401A652805D3F8
:10267000FFE703208DF82F0000F0E2BCE6E7FFE75C
:10268000FFE7FFE70A9800788007002840F11681ED
:10269000FFE744F21040C5F60200006800F0380081
:1026A000049044F22840C5F60200006803900498A4
:1026B00050B1FFE70498182878D1FFE79DF80C0087
:1026C0008007002872D1FFE744F20040C5F60200FF
:1026D000006800F004010020B0EB910F09D0FFE783
:1026E0000A98C06828B9FFE701208DF82F0000F094
:1026F000A7BC44F20041C5F60201086820F01900A9
:102700000A9AD26810430860FEF016F80990FFE7B5
:1027100044F20040C5F60200006800F00401002009
:10272000B0EB910F0DD1FFE7FEF006F80999401AC2
:10273000032805D3FFE703208DF82F0000F080BCAD
:10274000E6E7FFE7FEF7C0F841F2030188421DD833
:10275000FFE70A98006940280AD1FFE744F20441E4
:10276000C5F602010868202262F3113008600CE00F
:1027700044F20441C5F60201086820F47C300A9A4C
:10278000126940EA02300860FFE70CE044F20441BD
:10279000C5F60201086820F0FE400A9A126940EA74
:1027A00002600860FFE7FFE7FFE786E00A98C0687D
:1027B00000285CD0FFE744F20041C5F6020108683A
:1027C00020F019000A9AD26810430860FDF0B4FFA7
:1027D0000990FFE744F20040C5F60200006800F0EF
:1027E00004010020B0EB910F0DD1FFE7FDF0A4FF35
:1027F0000999401A032805D3FFE703208DF82F001D
:1028000000F01EBCE6E7FFE7FEF75EF841F20301C9
:1028100088421DD8FFE70A98006940280AD1FFE7DF
:1028200044F20441C5F602010868202262F3113027
:1028300008600CE044F20441C5F60201086820F487
:102840007C300A9A126940EA02300860FFE70CE027
:1028500044F20441C5F60201086820F0FE400A9ADD
:10286000126940EA02600860FFE7FFE724E044F2F3
:102870000041C5F60201086820F001000860FDF083
:102880005BFF0990FFE744F20040C5F602000068D4
:1028900000F004010020B0EB910F0CD0FFE7FDF039
:1028A0004BFF0999401A032804D3FFE703208DF852
:1028B0002F00C5E3E7E7FFE7FFE7FFE70A980078A7
:1028C000C006002840F1EB80FFE744F21040C5F657
:1028D0000200006800F03800029044F22840C5F67B
:1028E000020000680190029808280AD0FFE70298C9
:1028F000182850D1FFE7019800F0030001284AD1C1
:10290000FFE744F20040C5F60200006800F4807161
:102910000020B0EB112F09D0FFE70A98C06980288A
:1029200004D0FFE701208DF82F0089E3FFE7FDF7D2
:10293000CBFF41F2030188421DD8FFE70A98006AE5
:1029400020280AD1FFE744F20441C5F602010868D5
:10295000102262F39E6008600CE044F20441C5F668
:102960000201086820F0F8400A9A126A40EA826080
:102970000860FFE70CE044F20C41C5F6020108686C
:1029800020F07C500A9A126A40EA02600860FFE771
:10299000FFE7FFE782E00A98C069002858D0FFE708
:1029A00044F20041C5F60201086840F0800008606A
:1029B000FDF0C2FE0990FFE744F20040C5F60200B8
:1029C000006800F480710020B0EB112F0CD1FFE7FC
:1029D000FDF0B2FE0999401A032804D3FFE7032053
:1029E0008DF82F002CE3E7E7FFE7FDF76DFF41F2DD
:1029F000030188421DD8FFE70A98006A20280AD1FF
:102A0000FFE744F20441C5F602010868102262F3B0
:102A10009E6008600CE044F20441C5F602010868BB
:102A200020F0F8400A9A126A40EA82600860FFE7E4
:102A30000CE044F20C41C5F60201086820F07C501D
:102A40000A9A126A40EA02600860FFE7FFE724E0A2
:102A500044F20041C5F60201086820F080000860D9
:102A6000FDF06AFE0990FFE744F20040C5F602005F
:102A7000006800F480710020B0EB112F0CD0FFE74C
:102A8000FDF05AFE0999401A032804D3FFE70320FA
:102A90008DF82F00D4E2E7E7FFE7FFE7FFE70A98AA
:102AA0000078000700284FD5FFE70A98406928B34F
:102AB000FFE744F27441C5F60201086840F00100E6
:102AC0000860FDF039FE0990FFE744F27440C5F656
:102AD0000200006800F002010020B0EB510F0CD1A1
:102AE000FFE7FDF029FE0999401A032804D3FFE708
:102AF00003208DF82F00A3E2E7E724E044F27441BD
:102B0000C5F60201086820F001000860FDF014FE1F
:102B10000990FFE744F27440C5F60200006800F037
:102B200002010020B0EB510F0CD0FFE7FDF004FED6
:102B30000999401A032804D3FFE703208DF82F00DA
:102B40007EE2E7E7FFE7FFE70A98007880060028C3
:102B50004FD5FFE70A98806928B3FFE744F20041A8
:102B6000C5F60201086840F480500860FDF0E4FDFD
:102B70000990FFE744F20040C5F60200006800F447
:102B800000510020B0EB513F0CD1FFE7FDF0D4FD28
:102B90000999401A032804D3FFE703208DF82F007A
:102BA0004EE2E7E724E044F20041C5F6020108687E
:102BB00020F480500860FDF0BFFD0990FFE744F26B
:102BC0000040C5F60200006800F400510020B0EBA0
:102BD000513F0CD0FFE7FDF0AFFD0999401A0328E3
:102BE00004D3FFE703208DF82F0029E2E7E7FFE792
:102BF000FFE70A9800784007002840F1A780FFE728
:102C000044F60001C5F60201086840F480700860CF
:102C1000FDF092FD0990FFE744F60000C5F60200C2
:102C20000068C00500280CD4FFE7FDF085FD099978
:102C3000401A652804D3FFE703208DF82F00FFE139
:102C4000EAE7FFE70A988068012809D1FFE744F224
:102C50007041C5F60201086840F00100086031E0EB
:102C60000A98806868B9FFE744F27041C5F602012E
:102C7000086820F001000860086820F0040008607F
:102C80001FE00A98806805280DD1FFE744F27041E3
:102C9000C5F60201086840F004000860086840F0CA
:102CA000010008600CE044F27041C5F602010868BA
:102CB00020F001000860086820F004000860FFE7C9
:102CC000FFE7FFE7FFE70A988068F8B1FFE7FDF04C
:102CD00033FD0990FFE744F27040C5F6020000683A
:102CE00000F002010020B0EB510F0ED1FFE7FDF024
:102CF00023FD0999401A41F28931884204D3FFE744
:102D000003208DF82F009BE1E5E71EE0FDF014FDA8
:102D10000990FFE744F27040C5F60200006800F039
:102D200002010020B0EB510F0ED0FFE7FDF004FDD3
:102D30000999401A41F28931884204D3FFE7032000
:102D40008DF82F007CE1E5E7FFE7FFE70A98406A8E
:102D5000002800F07181FFE744F21040C5F6020040
:102D6000006800F03800182800F0E080FFE70A98BB
:102D7000406A022840F0B480FFE744F20041C5F603
:102D80000201086820F080700860FDF0D5FC099011
:102D9000FFE744F20040C5F60200006800F0007151
:102DA0000020B0EB516F0CD0FFE7FDF0C5FC099996
:102DB000401A032804D3FFE703208DF82F003FE1DA
:102DC000E7E7FFE744F22841C5F60201086840F250
:102DD000F33290430A9B9A6ADB6A42EA0312104379
:102DE00008600A99086BD1F834C08B6BCA6B013844
:102DF0006FF35F204FF60061CFF6FF7101EB4C21BE
:102E000089B208440021CFF6FF7101EB034101F4C0
:102E1000FE0108444FF07F4101EB026101F0FE41E9
:102E2000084444F23041C5F602010860FFE744F26D
:102E30002C41C5F602010091086820F001000860ED
:102E400044F23442C5F6020210684FF6F873984314
:102E50000A9B9B6C40EAC3001060086820F00C00DD
:102E60000A9A126C10430860086820F002000A9A5F
:102E7000526C10430860086840F4803008600868AD
:102E800040F400300860086840F48020086008685A
:102E900040F00100086044F20041C5F602010868F4
:102EA00040F080700860FDF047FC0990FFE744F2B5
:102EB0000040C5F60200006800F000710020B0EB91
:102EC000516F0CD1FFE7FDF037FC0999401A032838
:102ED00004D3FFE703208DF82F00B1E0E7E724E0FB
:102EE00044F20041C5F60201086820F080700860D5
:102EF000FDF022FC0990FFE744F20040C5F6020015
:102F0000006800F000710020B0EB516F0CD0FFE7BB
:102F1000FDF012FC0999401A032804D3FFE70320AF
:102F20008DF82F008CE0E7E7FFE784E044F22840CB
:102F3000C5F602000068089044F23040C5F6020071
:102F4000006807900A98406A012837D0FFE7089880
:102F500000F003000A99896A88422FD1FFE7089898
:102F600000F47C710A98C06AB0EB111F26D1FFE70C
:102F700007986FF35F200A99096B013988421DD1C8
:102F8000FFE7BDF81C100A98406B0138B0EB512FD9
:102F900014D1FFE7079800F4FE010A98806B01380E
:102FA000B0EB114F0AD1FFE7079800F0FE410A98F5
:102FB000C06B0138B0EB116F04D0FFE701208DF832
:102FC0002F003DE044F23440C5F60200006880B2B4
:102FD000C00808900A98806C0899884229D0FFE7B9
:102FE00044F22C41C5F60201086820F00100086097
:102FF000FDF0A2FB0990FFE7FDF09EFB0999401A46
:1030000008B9FFE7F8E744F23441C5F60201086861
:103010004FF6F87290430A9A926C40EAC200086038
:1030200044F22C41C5F60201086840F00100086036
:10303000FFE7FFE7FFE7FFE700208DF82F00FFE73E
:103040009DF82F000CB080BD81B0009001B070479A
:1030500081B0009001B0704783B00190019890F862
:103060003D00012804D0FFE701208DF80B0071E03E
:103070000199022081F83D0001980168C86840F07C
:103080000100C860019800680021C4F20101884273
:103090003CD0FFE701980068B0F1804F36D0FFE7E1
:1030A0000198006840F20041C4F2000188422DD02E
:1030B000FFE70198006840F60001C4F20001884271
:1030C00024D0FFE70198006840F60041C4F20001F7
:1030D00088421BD0FFE70198006840F20041C4F22B
:1030E0000101884212D0FFE70198006841F6000113
:1030F000C4F20001884209D0FFE70198006844F259
:103100000001C4F20101884219D1FFE7019800686B
:1031100080680721C0F2010108400090009806284D
:103120000CD0FFE70098B0F5803F07D0FFE701988B
:103130000168086840F001000860FFE706E00198B8
:103140000168086840F001000860FFE700208DF882
:103150000B00FFE79DF80B0003B070470000000074
:1031600081B0009001B0704780B582B00190FDF051
:10317000EBFA02B080BD000081B0009001B0704752
:1031800080B582B00090009820B9FFE701208DF84B
:10319000070046E00098806908B1FFE700E0FFE71C
:1031A0000098D0F8880040B9FFE70099002081F826
:1031B0008400009800F03CF8FFE700992420C1F853
:1031C000880000980168086820F0010008600098F5
:1031D00000F006FD012804D1FFE701208DF807006B
:1031E0001FE00098806A20B1FFE7009800F17CFCA6
:1031F000FFE700980168486820F490404860009814
:103200000168886820F02A008860009801680868D2
:1032100040F001000860009800F0EEFB8DF8070018
:10322000FFE79DF8070002B080BD0000000000002D
:1032300081B0009001B0704785B004904EF62C50DC
:10324000CEF200000068C00F68B1FFE74EF62C51C7
:10325000CEF20001086840F00040086004998869D7
:103260000230886199E04EF62450CEF200000068EA
:1032700040F22401C2F20041019108624EF628504A
:10328000CEF20000007881F824004EF62950CEF2EC
:103290000000007888624EF63850CEF200000068D8
:1032A000C8624EF62A50CEF20000008808864EF61C
:1032B0002C50CEF20000006848634EF63050CEF23B
:1032C0000000006888634EF63C50CEF200000068B3
:1032D000C86344F61550C0F60000039000208DF836
:1032E0000B00FFE79DF80B0028281BD8FFE7039889
:1032F0009DF80B10405C41F22801C4F20101086006
:10330000FFE741F21C00C4F20100006840060028FB
:1033100001D4FFE7F5E7FFE79DF80B0001308DF8DA
:103320000B00DFE740F20411C2F200410020086008
:10333000FFE740F20410C2F20040006808B9FFE75E
:10334000F7E70498006840F22401C2F200410091BE
:103350000860049840684860049880688860049811
:10336000C068C860049800690861049840694861B1
:103370000498806988610498C069C86140F20411AA
:10338000C2F2004100200860FFE740F20410C2F2E0
:103390000040006808B9FFE7F7E705B07047000094
:1033A00080B540F26400C2F20040C06BFDF74CFBF8
:1033B00080BD00000000000085B0DDF814C004905E
:1033C000039102920193049800684069019961F3A6
:1033D00010000499096848610498006840696FF317
:1033E0001F50059940EA0150A0F580100499096822
:1033F0004861049801681F20486002980499096890
:10340000C86103980499096888619DF80F00000657
:1034100000900098B0F1005F03D0FFE7009838B942
:10342000FFE704980168886A40F48030886206E00B
:1034300004980168886A20F480308862FFE79DF86C
:103440000B00000600900098B0F1005F03D0FFE78A
:10345000009838B9FFE704980168886A40F40030A2
:10346000886206E004980168886A20F40030886267
:10347000FFE704980168C06D486205B0704700001E
:1034800080B588B0FDF7CCFC012101918DF81010BA
:103490004FF01050059012208DF818000320009076
:1034A0008DF81B00002002908DF81F008DF81E0083
:1034B0008DF81D008DF811008DF81A108DF8190087
:1034C0008DF81C0004A80390FDF012FA009B019AED
:1034D000029903988DF810204FF0C04CCDF814C01D
:1034E0004FF00F0C8DF818C08DF81B308DF81F2091
:1034F0008DF81E108DF81D108DF811208DF81A1002
:103500008DF819108DF81C10FDF0F2F90420FDF76C
:103510009BFC08B080BD0000704700000000000068
:1035200080B582B001900198006C00900099002055
:1035300088630099C862009890F84100082811D16A
:10354000FFE7009801680220C860009801680868D9
:1035500040F40030086000980168086840F00200FC
:10356000086007E00099012081F841000098FDF70C
:103570003FFEFFE702B080BD82B001900198006C71
:10358000009000990020886300980168086840F462
:103590000030086002B0704780B592B0119003A867
:1035A00002903821FCF033FD40F22001C2F20041CC
:1035B00000200090087040F26400C2F200400190C8
:1035C000FFF006FE009A019802994FF48073099368
:1035D0004FF4405306930B920E920F9210922123B8
:1035E00003934FF480630A93119B04930C92089207
:1035F000FDF772FD48B1FFE744F6F540C0F6000064
:103600004FF4BC71FCF070FEFFE7FFE740F22000D2
:10361000C2F20040007808B9FFE7F7E740F2200166
:10362000C2F200410020087040F2B101C2F2004134
:10363000087040F26400C2F20040FFF0F9FAFFE7C0
:1036400040F2B100C2F20040007808B9FFE7F7E7A6
:1036500040F2B101C2F200410020087012B080BDFA
:1036600080B592B003A801903821FCF0D0FC0199FC
:103670004FF4807009904FF44050069000200B905A
:103680000E900F9010909F2203920A904FF080723C
:103690000C92089003200D9040F26400C2F20040AA
:1036A00041F28832FDF798FC48B1FFE744F6F54057
:1036B000C0F6000040F2FF11FCF016FEFFE740F2FA
:1036C0006400C2F200400DF1090141F28832FDF7B9
:1036D000ABFE48B1FFE744F6F540C0F6000040F20B
:1036E0000321FCF001FEFFE79DF809009DF80A2088
:1036F0009DF80B10000440EA022008441190119834
:1037000012B080BD0000000080B586B0DDF820C09A
:10371000049003918DF80B200193FFE70498006853
:10372000806803990840002818BF01209DF80B10FD
:1037300088421ED0FFE708980130C8B1FFE7FCF0CF
:10374000FBFF0199401A0899884203D8FFE70898BF
:1037500068B9FFE70499042081F841000499486C96
:1037600040F00100486401208DF8170005E0FFE7F4
:10377000D4E700208DF81700FFE79DF8170006B08A
:1037800080BD00000000000080B540F26400C2F27D
:103790000040FDF0ADF980BD80B586B00490039186
:1037A00000208DF8070044F22840C5F602000068AA
:1037B00000F00300032804D1FFE701208DF8170073
:1037C000CBE044F20041C5F60201086820F08050C9
:1037D0000860FCF0B1FF0290FFE744F20040C5F63C
:1037E0000200006800F000510020B0EB517F0CD0C7
:1037F000FFE7FCF0A1FF0299401A032804D3FFE77A
:1038000003208DF81700A8E0E7E7FFE744F228411E
:10381000C5F60201086820F07C70049A126840EA3C
:103820000250086004994868D1F808C0CB680A695A
:1038300001386FF35F204FF60061CFF6FF7101EBA7
:103840004C2189B208440021CFF6FF7101EB0341FE
:1038500001F4FE0108444FF07F4101EB026101F0E9
:10386000FE41084444F24041C5F602010860FFE70A
:1038700044F22C41C5F602010091086820F4406032
:10388000049A526910430860086820F40070049A92
:10389000926910430860086820F48070086044F260
:1038A0004442C5F6020210684FF6F8739843049B31
:1038B000DB6940EAC3001060086840F4807008606B
:1038C000039848B9FFE744F22C41C5F602010868A5
:1038D00040F48000086016E00398012809D1FFE752
:1038E00044F22C41C5F60201086840F4000008606B
:1038F00008E044F22C41C5F60201086840F08070EF
:103900000860FFE7FFE744F20041C5F602010868DE
:1039100040F080500860FCF00FFF0290FFE744F297
:103920000040C5F60200006800F000510020B0EB36
:10393000517F0CD1FFE7FCF0FFFE0299401A0328EB
:1039400004D3FFE703208DF8170006E0E7E7FFE761
:103950009DF807008DF81700FFE79DF8170006B0E7
:1039600080BD000000000000704700000000000063
:1039700082B001900198406E40B9FFE701990120A3
:10398000A1F86A000199A1F8680032E010208DF8D2
:1039900003008DF80200019800688068C0F342605F
:1039A0008DF80100019800688068400F8DF80000D4
:1039B0009DF802009DF8002044F66633C0F610031F
:1039C000995C484344F6A841C0F600018A5CB0FB0C
:1039D000F2F0019AA2F86A009DF803009DF8012018
:1039E0009B5C5843895CB0FBF1F00199A1F8680039
:1039F000FFE702B07047000080B588B006900699D6
:103A00000020C1F89000FCF097FE05900698006831
:103A10000068000700282FD5FFE70698059B6A4637
:103A20006FF07E4111604FF40011002200F06CFD38
:103A300008B3FFE7FFE7FFE70698006850E8000FCC
:103A400020F080000490FFE704990698026842E89D
:103A500000100028F0D1FFE7FFE706992020C1F809
:103A60008800FFE70699002081F88400FFE7032023
:103A70008DF81F005FE0FFE70698006800684007C8
:103A8000002842D5FFE70698059B6A466FF07E4105
:103A900011604FF48001002200F036FDA0B3FFE773
:103AA000FFE7FFE70698006850E8000F20F49070E9
:103AB0000390FFE703990698026842E80010002887
:103AC000F0D1FFE7FFE7FFE7FFE70698006850E85F
:103AD000020F20F001000290FFE7029906980268A9
:103AE00042E802100028F0D1FFE7FFE70699202006
:103AF000C1F88C00FFE70699002081F88400FFE7F9
:103B000003208DF81F0016E0FFE706992020C1F87A
:103B100088000699C1F88C0006990020C8660699AD
:103B20000867FFE70699002081F88400FFE700207E
:103B30008DF81F00FFE79DF81F0008B080BD000052
:103B400084B00390FFE7FFE70398006850E8000F98
:103B500020F490700290FFE702990398026842E80F
:103B600000100028F0D1FFE7FFE7FFE7FFE7039829
:103B7000006850E8020F4FF6FE71CEF6FF71084064
:103B80000190FFE701990398026842E802100028BB
:103B9000EDD1FFE7FFE70398C06E012814D1FFE7DE
:103BA000FFE7FFE70398006850E8000F20F01000DF
:103BB0000090FFE700990398026842E8001000288F
:103BC000F0D1FFE7FFE7FFE703992020C1F88C0061
:103BD00003990020C8660399486704B07047000045
:103BE00080B59CB01B9000208DF85F001B9800688A
:103BF00040F60041C5F60001884201D1FFE700E030
:103C0000FFE71B9988680B694A69C9691843104323
:103C100008431A901B980068006846F6F311CCF62A
:103C2000FF7108401A9908431B99096808601B989E
:103C30000068406820F440501B9A1168D268104315
:103C400048601B9880691A901B98006840F60041F4
:103C5000C5F60001884206D0FFE71B98016A1A9852
:103C600008431A90FFE71B98006880684FF2FF41F5
:103C7000C1F2FF1108401A9908431B99096888602E
:103C80001B980068C06A20F00F001B9A1168526AE6
:103C90001043C862FFE71B98006841F20001C4F2BC
:103CA0000101884240F04180FFE744F25440C5F6EC
:103CB0000200006800F0380001460E9128282FD835
:103CC0000E99DFE801F0152D2D2D2D2D2D2D192DFF
:103CD0002D2D2D2D2D2D1D2D2D2D2D2D2D2D212D30
:103CE0002D2D2D2D2D2D252D2D2D2D2D2D2D29003D
:103CF00001208DF8650017E004208DF8650013E0C1
:103D000008208DF865000FE010208DF865000BE0AD
:103D100020208DF8650007E040208DF8650003E065
:103D200080208DF86500FFE7D6E11B98006844F21B
:103D30000041C4F2000188422ED1FFE744F2544012
:103D4000C5F60200006800F0070001460D91052845
:103D50001DD80D99DFE801F003070B0F13170020A2
:103D60008DF8650017E004208DF8650013E0082049
:103D70008DF865000FE010208DF865000BE0202025
:103D80008DF8650007E040208DF8650003E0802095
:103D90008DF86500FFE79EE11B98006844F600017E
:103DA000C4F2000188422ED1FFE744F25440C5F628
:103DB0000200006800F0070001460C9105281DD89C
:103DC0000C99DFE801F003070B0F131700208DF8A3
:103DD000650017E004208DF8650013E008208DF8D9
:103DE00065000FE010208DF865000BE020208DF8B5
:103DF000650007E040208DF8650003E080208DF825
:103E00006500FFE766E11B98006844F60041C4F2D4
:103E1000000188422ED1FFE744F25440C5F602006B
:103E2000006800F0070001460B9105281DD80B998A
:103E3000DFE801F003070B0F131700208DF8650072
:103E400017E004208DF8650013E008208DF8650068
:103E50000FE010208DF865000BE020208DF8650044
:103E600007E040208DF8650003E080208DF86500B4
:103E7000FFE72EE11B98006845F20001C4F2000143
:103E800088422ED1FFE744F25440C5F60200006894
:103E900000F0070001460A9105281DD80A99DFE8BD
:103EA00001F003070B0F131700208DF8650017E0D2
:103EB00004208DF8650013E008208DF865000FE000
:103EC00010208DF865000BE020208DF8650007E0DC
:103ED00040208DF8650003E080208DF86500FFE745
:103EE000F6E01B98006841F20041C4F201018842EB
:103EF00040F04180FFE744F25440C5F602000068FC
:103F000000F038000146099128282FD80999DFE8E8
:103F100001F0152D2D2D2D2D2D2D192D2D2D2D2D66
:103F20002D2D1D2D2D2D2D2D2D2D212D2D2D2D2DDD
:103F30002D2D252D2D2D2D2D2D2D290001208DF8F8
:103F4000650017E004208DF8650013E008208DF867
:103F500065000FE010208DF865000BE020208DF843
:103F6000650007E040208DF8650003E080208DF8B3
:103F70006500FFE7ABE01B98006847F60001C4F25C
:103F8000000188422ED1FFE744F25440C5F60200FA
:103F9000006800F007000146089105281DD808991F
:103FA000DFE801F003070B0F131700208DF8650001
:103FB00017E004208DF8650013E008208DF86500F7
:103FC0000FE010208DF865000BE020208DF86500D3
:103FD00007E040208DF8650003E080208DF8650043
:103FE000FFE773E01B98006847F60041C4F2000148
:103FF00088422ED1FFE744F25440C5F60200006823
:1040000000F007000146079105281DD80799DFE851
:1040100001F003070B0F131700208DF8650017E060
:1040200004208DF8650013E008208DF865000FE08E
:1040300010208DF865000BE020208DF8650007E06A
:1040400040208DF8650003E080208DF86500FFE7D3
:104050003BE01B98006840F60041C5F6000188422D
:104060002ED1FFE744F25840C5F60200006800F088
:1040700007000146069105281DD80699DFE801F0E2
:1040800003070B0F131702208DF8650017E00420BB
:104090008DF8650013E008208DF865000FE0102012
:1040A0008DF865000BE020208DF8650007E04020CA
:1040B0008DF8650003E080208DF86500FFE703E0E0
:1040C00080208DF86500FFE7FFE7FFE7FFE7FFE7E8
:1040D000FFE7FFE7FFE7FFE7FFE71B98006840F611
:1040E0000041C5F60001884240F0B480FFE79DF82A
:1040F000650001460591022814D0FFE705980428C1
:1041000014D0FFE70598082816D0FFE70598102877
:1041100018D0FFE70598202835D0FFE705984028FC
:1041200037D03AE0FDF74CFC0F903CE013A8FDF7C8
:104130005BFC14980F9036E010A8FCF069FF119812
:104140000F9030E044F20040C5F60200006800F035
:1041500020010020B0EB511F0ED0FFE744F20040D9
:10416000C5F602000068C0F3C10149F20000C0F2C8
:10417000D030C8400F9005E049F20000C0F2D030C6
:104180000F90FFE70FE040F60010C0F23D000F90E7
:1041900009E04FF400400F9005E000200F9001204F
:1041A0008DF85F00FFE70F98002852D0FFE70F98C7
:1041B0001B994A6A44F6B041C0F6000131F812106A
:1041C000B0FBF1F0169016981B99496801EB41017C
:1041D000884207D3FFE716981B994968B0EB013F67
:1041E00004D9FFE701208DF85F0031E00F981B999B
:1041F0004A6803924A6A44F6B041C0F6000131F8B9
:104200001220002304931946FCF762F8039A049BDA
:10421000090241EA1061000210EB520041F1000175
:10422000FCF756F818901898B0F5407F0BD3FFE7CD
:1042300018990020B0EB115F05D1FFE718981B9982
:104240000968C86003E001208DF85F00FFE7FFE721
:10425000FFE746E11B98C069B0F5004F40F0A88029
:10426000FFE79DF8650001460291402800F2638057
:104270000299DFE801F021256060296060602F600D
:104280006060606060603560606060606060606059
:104290006060606060605660606060606060606028
:1042A000606060606060606060606060606060600E
:1042B0006060606060605C00FDF77EFF0F9040E032
:1042C000FEF07AF80F903CE013A8FDF78DFB1498F0
:1042D0000F9036E010A8FCF09BFE11980F9030E094
:1042E00044F20040C5F60200006800F02001002002
:1042F000B0EB511F0ED0FFE744F20040C5F60200BC
:104300000068C0F3C10149F20000C0F2D030C840DB
:104310000F9005E049F20000C0F2D0300F90FFE7A7
:104320000FE040F60010C0F23D000F9009E04FF49E
:1043300000400F9005E000200F9001208DF85F00F5
:10434000FFE70F9898B3FFE70F981B9A5168536ADD
:1043500044F6B042C0F6000232F81320B0FBF2F08F
:10436000400000EB5100B0FBF1F0189018981028B5
:1043700018D3FFE7BDF86200A0B9FFE7189820F056
:104380000F00ADF86600189800F00E01BDF8660049
:1043900040EA5100ADF86600BDF866001B99096857
:1043A000C86003E001208DF85F00FFE7FFE797E0BA
:1043B0009DF8650001460191402800F26380019953
:1043C000DFE801F021256060296060602F60606097
:1043D0006060606035606060606060606060606008
:1043E00060606060566060606060606060606060D7
:1043F00060606060606060606060606060606060BD
:10440000606060605C00FDF7D7FE0F9040E0FDF05B
:10441000D3FF0F903CE013A8FDF7E6FA14980F9035
:1044200036E010A8FCF0F4FD11980F9030E044F253
:104430000040C5F60200006800F020010020B0EB4B
:10444000511F0ED0FFE744F20040C5F6020000689D
:10445000C0F3C10149F20000C0F2D030C8400F9053
:1044600005E049F20000C0F2D0300F90FFE70FE006
:1044700040F60010C0F23D000F9009E04FF40040FC
:104480000F9005E000200F9001208DF85F00FFE7FE
:104490000F9820B3FFE70F981B9A5168536A44F6B0
:1044A000B042C0F6000232F81320B0FBF2F000EB8D
:1044B0005100B0FBF1F01890189810280AD3FFE7CC
:1044C000BDF8620030B9FFE7BDF860001B990968CC
:1044D000C86003E001208DF85F00FFE7FFE7FFE71A
:1044E000FFE71B990120A1F86A001B99A1F8680059
:1044F0001B99002048671B9988679DF85F001CB0D6
:1045000080BD00000000000080B586B0DDF820C04E
:10451000049003918DF80B200193FFE70498006845
:10452000C06903990840401AB0FA80F040099DF82C
:104530000B1088425ED1FFE708980130002858D060
:10454000FFE7FCF0F9F80199401A0899884203D86E
:10455000FFE7089820B9FFE703208DF817004DE02A
:104560000498006800684007002841D5FFE70498D8
:104570000068C06900F008010120B0EBD10F16D12E
:10458000FFE7049801680820009008620498FFF78C
:10459000D7FA00980499C1F89000FFE70499002029
:1045A00081F88400FFE701208DF8170026E00498C9
:1045B0000068C06900F400610120B0EBD12F16D172
:1045C000FFE7049801684FF4006008620498FFF761
:1045D000B7FA04992020C1F89000FFE70499002061
:1045E00081F88400FFE703208DF8170006E0FFE75D
:1045F000FFE793E700208DF81700FFE79DF817000D
:1046000006B080BD00000000FFE7FEE700000000EC
:1046100080B542F21801C5F602014FF00070086043
:104620000120FBF075FE80BD82B0ADF80600009160
:10463000BDF9060000280AD4FFE700980001BDF983
:1046400006104EF20042CEF2000288540BE00098B1
:104650000001BDF8061001F00F014EF61452CEF223
:1046600000028854FFE702B070470000000000001D
:1046700083B00290029800F0070000904EF60C51B3
:10468000CEF200010868019001984FF6FF02104039
:1046900001900198009A40EA02200022C0F2FA52EA
:1046A000104301900198086003B0704700000000BB
:1046B00080B582B08DF807009DF8071040F6D05005
:1046C000C2F2004000EB011000909DF80700FEF0E0
:1046D00057F9002863D0FFE700980079042804DC2C
:1046E000FFE700990520087158E000980079092833
:1046F00005DCFFE700990879013008714DE000986A
:10470000807A60B9FFE70099012088729DF8070060
:1047100000EB40000130C0B2FFF0CEFCFFE7009894
:104720000089012838DBFFE70099C8880989884299
:1047300014DAFFE70099C8880130C88080B2009978
:104740000989884209D1FFE79DF8070000EB400086
:104750000330C0B2FFF0B0FCFFE71CE00098C07A65
:10476000012817DBFFE70099087B01300873C0B20E
:104770000099C97A88420CDBFFE700990020087392
:104780009DF8070000EB40000130C0B2FFF094FC40
:10479000FFE7FFE7FFE7FFE7FFE7FFE72AE0009813
:1047A0000079062804DBFFE70099052008711BE06B
:1047B0000098007928B1FFE700990879013808715D
:1047C00011E00098807A01280CD1FFE700990020C1
:1047D00088729DF8070000EB40000230C0B2FFF085
:1047E0006BFCFFE7FFE7FFE700990020C880009916
:1047F0000873FFE702B080BD80B588B0FFE744F2E0
:10480000E040C5F60200016841F00801016000685F
:1048100000F0080001900198FFE7FFE744F2E04054
:10482000C5F60200016841F002010160006800F075
:10483000020000900098FFE70020049005900321FB
:1048400006918DF80B00FFE79DF80B00042818DC9B
:10485000FFE79DF80B1044F67030C0F6100000EB37
:10486000C101898803919DF80B1050F8310003A90C
:10487000FBF07EFDFFE79DF80B0001308DF80B008B
:10488000E2E708B080BD000080B582B040F264006D
:10489000C2F2004045F20001C5F200210160FCF0C7
:1048A00007F940B1FFE744F6F540C0F600004121AA
:1048B000FBF01AFDFFE740F26400C2F200400190F5
:1048C00001214160202181601021C1601921016115
:1048D0004FF48071416100218161C1610162FCF08E
:1048E000BFFA40B1FFE744F6F540C0F6000065218D
:1048F000FBF0FAFCFFE702B080BD00000000000002
:1049000080B582B000208DF80700FFE79DF8070012
:1049100004280BDCFFE79DF80700FFF7C9FEFFE75F
:104920009DF8070001308DF80700EFE702B080BD69
:1049300080B582B08DF807008DF806108DF805203F
:104940009DF80700FFF0A4FA9DF80600FFF0A0FA1A
:104950009DF80500FFF09CFAFFF75AFE02B080BDFB
:1049600080B5FFF7CDFF80BD82B08DF80700ADF8B0
:1049700004108DF80320BDF804109DF8072040F6C0
:10498000D050C2F2004000EB021211819DF80310DA
:104990009DF8072000EB0212D1729DF8071000EB82
:1049A00001110020087302B07047000000000000F1
:1049B00080B5ACB02B902A91299228932B98039024
:1049C0002A98049000210191059106912998079059
:1049D0000991289808900A910B910C911C910D91C6
:1049E00003A80290FDF004FF01990298FDF0B8FEC3
:1049F0000298FEF7C5FB40B1FFE744F61A50C0F637
:104A00001000C321FBF070FCFFE72CB080BD00005C
:104A100081B0009000984068A8B1FFE7009948680D
:104A20000138486070B9FFE700990120487000988C
:104A30000078012805D1FFE7009880680099486058
:104A4000FFE7FFE7FFE701B070470000000000004C
:104A500081B00020ADF80200ADF80200FFE7BDF81C
:104A60000200B0F5707F08DAFFE700BFFFE7BDF88E
:104A700002000130ADF80200F1E701B0704700001C
:104A800080B5FFE741F60040C5F602004FF48071A3
:104A90000022FBF701FFFFE7FFF7DAFFFFE741F630
:104AA0000040C5F6020080210122FBF7F5FEFFE77A
:104AB000FFF7CEFFFFE741F60040C5F602004FF4D6
:104AC00080710122FBF7E8FEFFE7FFF7C1FF80BD21
:104AD0001EF0040F0CBFEFF30880EFF30980FEF720
:104AE000ABBB02E008C8121F08C1002AFAD1704708
:104AF0007047002001E001C1121F002AFBD170475E
:104B00002DE9FF5F82B00021DDE90430020DDDF800
:104B100040B0034318D044F61050A2F2FF32424393
:104B20001514119801281FD0A5EB0B00401C5FEA5B
:104B3000000A4FF000064E4FDFF83891B04650465D
:104B400015D5CAF1000413E0119801244AA30128E5
:104B500001D16FEA0B010298119AC0E90031C0E956
:104B6000024206B0BDE8F09FCBF10000DFE704464B
:104B70000021404A491842EB0450CDE9001012E0F0
:104B8000E00707D032463B4640464946FBF7F0FB7C
:104B90008046894632463B4610461946FBF7E8FBFD
:104BA00006460F466410002CEAD1DDE90401DDE978
:104BB0000023BAF1000F06DAFBF7DAFB42464B4658
:104BC000FBF7D6FB05E0FBF745FC42464B46FBF7FF
:104BD00041FC04460E460022284BFBF7ABFC03D8F1
:104BE0004FF0FF30014607E00022254B20463146BA
:104BF000FBF02EFAFBF0D3FA102409E0002C0ADBBC
:104C00000A220023FBF764FB039B30321A55641E13
:104C100050EA0102F2D1641C039AC4F11103144456
:104C2000119A012A03D0012208430DD10AE008435A
:104C300004D000204FF0110B119072E7A3EB0B058D
:104C40006D1E0DE05B4504DD4FF0000205F101052E
:104C500004E003DA4FF00002A5F10105002AECD0D0
:104C600002981199C0E90231C0E9004579E70000D6
:104C7000000014400000F03F300000000000F0434E
:104C80000000E03F2DE9F041044600251E4617468E
:104C9000880404D405E039462020B0476D1C641E0A
:104CA000F9D52846BDE8F081080402040801010195
:104CB000010002000400060008000A000C001000B9
:104CC000200040008000000157726F6E6720706105
:104CD00072616D65746572732076616C75653A20DA
:104CE00066696C65202573206F6E206C696E652087
:104CF00025640D0A002E2E2F2E2E2F557365722F30
:104D00004253502F7372632F6273705F7732357125
:104D100078782E63000D0A456E74657220486172C2
:104D2000644661756C745F48616E646C65722C20BA
:104D300053797374656D2048616C742E0D0A000000
:104D4000604D00080000002420000000E24A000836
:104D5000804D00082000002450120000F24A000894
:104D6000000000000090D0030090D003010000007C
:104D70001000000000000000000000000000000023
:020000040810E2
:10000000D2B201E000F8012B491EFBD2704700225A
:10001000F6E710B513460A4604461946FFF7F0FF07
:10002000204610BD30B50B46014600202022012499
:1000300009E021FA02F59D4205D303FA02F5491BB6
:1000400004FA02F52844151EA2F10102F1DC30BDCC
:100050002DE9FE4F804681EA0300C00F0C46009058
:1000600021F0004123F00045B8EB0200A94105D280
:100070004046214690461C460B46024623F000406F
:10008000104347D0270DC7F30A00C3F30A5102906B
:10009000401A019040286BDAC3F3130040F4801B30
:1000A0000098924620B10023D2EB030A63EB0B0BBE
:1000B00001985946C0F14002504600F73AF9064609
:1000C0000D4650465946019A00F081F810EB0800A1
:1000D0006141002487EA115284EAE7731A4340D051
:1000E000009A62B3019A012A4FEA075215DC001BFD
:1000F00061EB02014FF0004202EA0752CDE90042F3
:10010000001C41F5801132462B4600F752FA03B02D
:10011000BDE8F08F40462146F9E7001B61EB020184
:10012000001C41F5801300185B412018A2F5001750
:1001300047EB030140EAD570B6196D4111E06D0837
:100140004FEA360645EAC0754FEA0752001B61EBDD
:100150000201001C41F5801149084FEA30000019E6
:10016000514132462B4603B0BDE8F04F00F712BABA
:100170000098012240000023D0EB020263EBE07301
:10018000009821464FEAE074B8EB000061EB0401EF
:10019000E9E783F000435BE781F0004158E7C1F3F2
:1001A0000A52C1F3130140F2FF3341F480119A4225
:1001B00002DA00200146704740F233439A42A2F22D
:1001C000334202DC524200F7C3B800F7B2B8202A2B
:1001D00006DBCB17203A41FA02F043EAE07306E06F
:1001E00041FA02F3D040C2F120029140084319467F
:1001F0007047000000000000FFE7FEE7000000007D
:1002000083B04EF61450CEF2000000688003002840
:1002100001D5FFE71AE0BFF34F8FBFF36F8F4EF6A4
:100220005071CEF2000100200860BFF34F8FBFF382
:100230006F8F4EF61451CEF20001086840F4003082
:100240000860BFF34F8FBFF36F8FFFE74EF6145078
:10025000CEF200000068C003002801D5FFE73CE0B3
:100260004EF68451CEF2000100200860BFF34F8F9C
:100270004EF68050CEF20000006802900298C0F363
:100280004E300190FFE70298C0F3C9000090FFE7ED
:1002900001990098800761F34D104EF66071CEF21F
:1002A000000108600098411E00910028F0D1FFE78E
:1002B0000198411E01910028E5D1FFE7BFF34F8F60
:1002C0004EF61451CEF20001086840F48030086008
:1002D000BFF34F8FBFF36F8FFFE703B0704700008E
:1002E000704700000000000080B582B001900091CE
:1002F0000199009A44F6C840C0F6000004F096F850
:10030000009810B9FFE702B080BDFFE7FEE70000EC
:1003100080B584B0039000F00FFA0290039801902A
:100320000198013048B1FFE740F20C00C2F20040F2
:100330000178019808440190FFE7FFE700F0FCF91D
:100340000299401A0199884201D2FFE7F6E704B00A
:1003500080BD00000000000040F22041C5F6000111
:10036000086840F0010008607047000000000000CD
:1003700090B00F900E9100200D908020C5F60000E7
:100380000A90FFE70E9800680D99C840002800F019
:10039000CF81FFE70E9800680D9A01219140084037
:1003A0000C900C98002800F0BF81FFE70E98406881
:1003B00000F00300012807D0FFE70E98406800F026
:1003C000030002282FD1FFE70F9880680B900D984B
:1003D0004100032000FA01F10B9888430B900E981E
:1003E000C0680D99490000FA01F10B9808430B9081
:1003F0000B980F9988600F9840680B900D99012019
:1004000000FA01F10B9888430B900E984068C0F3F6
:1004100000100D9900FA01F10B9808430B900B980E
:100420000F994860FFE70E98406800F0030003282A
:1004300018D0FFE70F98C0680B900D98410003207B
:1004400000FA01F10B9888430B900E9880680D9983
:10045000490000FA01F10B9808430B900B980F9993
:10046000C860FFE70E98406800F00300022826D11C
:10047000FFE70F980D996FF0030202EA510108445B
:10048000006A0B900D9800F0070081000F2000FA21
:1004900001F10B9888430B900E9800690D9901F0BB
:1004A0000701890000FA01F10B9808430B900B98A3
:1004B0000F990D9B02EA530211440862FFE70F985F
:1004C00000680B900D984100032000FA01F10B9891
:1004D00088430B900E98406800F003000D99490086
:1004E00000FA01F10B9808430B900B980F990860E4
:1004F0000E9880798007002800F01581FFE7FFE75C
:1005000044F2F440C5F60200016841F002010160C6
:10051000006800F0020009900998FFE70D9820F0AC
:10052000030040F20841C5F6000140580B900D98B9
:1005300000F0030081000F2000FA01F10B988843BE
:100540000B900F980021C5F60201884203D1FFE706
:10055000002008907AE00F9840F20041C5F60201B1
:10056000884203D1FFE7012007906CE00F9840F626
:100570000001C5F60201884203D1FFE70220069080
:100580005EE00F9840F60041C5F60201884203D1B3
:10059000FFE70320059050E00F9841F20001C5F6F7
:1005A0000201884203D1FFE70420049042E00F9843
:1005B00041F20041C5F60201884203D1FFE7052060
:1005C000039034E00F9841F60001C5F6020188421D
:1005D00003D1FFE70620029026E00F9841F6004184
:1005E000C5F60201884203D1FFE70720019018E019
:1005F0000F9842F20001C5F60201884203D1FFE7DD
:10060000082000900AE00F9942F20042C5F602026B
:100610000A20914208BF09200090FFE7009801904E
:10062000FFE701980290FFE702980390FFE7039825
:100630000490FFE704980590FFE705980690FFE710
:1006400006980790FFE707980890FFE708980D992C
:1006500001F00301890000FA01F10B9808430B90A7
:100660000B980D9921F0030140F20842C5F60002F3
:1006700088504FF0B04000680B900C990B9888435D
:100680000B900E988079C006002805D5FFE70C99DD
:100690000B9808430B90FFE70B984FF0B0410860B0
:1006A0000420C5F6000000680B900C990B98884355
:1006B0000B900E9880798006002805D5FFE70C99ED
:1006C0000B9808430B90FFE70B980421C5F6000137
:1006D00008600A9840680B900C990B9888430B901F
:1006E0000E9880798007002805D5FFE70C990B98B4
:1006F00008430B90FFE70B980A9948600A98006836
:100700000B900C990B9888430B900E988079C0073A
:1007100028B1FFE70C990B9808430B90FFE70B9863
:100720000A990860FFE7FFE70D9801300D9029E670
:1007300010B070470000000040F66860C2F2004050
:10074000006870470000000040F20C00C2F2004058
:10075000027840F66861C2F20041086810440860FF
:10076000704700000000000080B590B00F90FFE7D8
:1007700044F2E840C5F60200016841F01001016052
:10078000006800F0100001900198FFE707A803A996
:1007900001F7CEFC0C980590059820B9FFE701F70A
:1007A0000BFD069004E001F707FD40000690FFE70F
:1007B00006984DF68361C4F21B31A0FB01014FF096
:1007C000FF3000EB9140049040F2B400C2F20040D0
:1007D00041F20001C4F20001016040F2E731C16062
:1007E0000499416000210161816001F001FE8DF8F2
:1007F0000B009DF80B0028BBFFE740F2B400C2F2EB
:10080000004002F729FC8DF80B009DF80B00C0B9E1
:10081000FFE7362000F734FB0F980F280CD8FFE7CE
:100820000F993620002200F0B3F80F9840F2100123
:10083000C2F20041086003E001208DF80B00FFE7E1
:10084000FFE7FFE79DF80B0010B080BD000000003F
:1008500080B584B00290FFF76FFF0190029820B935
:10086000FFE701208DF80F003CE0FFE70299002030
:1008700081F83C00FFE70299022081F83D000298D0
:100880000168C86820F00100C860FFE702980068AE
:10089000C068C00798B1FFE7FFF74EFF0199401A03
:1008A00006280BD3FFE702994020886602990320AF
:1008B00081F83D0001208DF80F0013E0E6E7029873
:1008C00002F0E2F802990020C865029908660299D0
:1008D000486602998866029A012182F83D108DF8D7
:1008E0000F00FFE79DF80F0004B080BD000000007E
:1008F00080B582B00190019840784EF69851CEF2C2
:10090000000108600198007898B3FFE701984068FB
:100910004EF69C51CEF200010860DDF804C0CDF81F
:1009200000C09CF80C0000079CF80B1040EA016026
:100930009CF800109CF808209CF809309CF80AE00C
:1009400040EACE409CF80DE040EA8E409CF80EE074
:1009500040EA4E409CF80FC040EA0C4040EA0320B9
:1009600040EA420008434EF6A051CEF20001086072
:100970000BE04EF69C51CEF20001002008604EF6CE
:10098000A051CEF200010860FFE702B080BD000078
:1009900080B586B0ADF816000491039203F014FB05
:1009A0000290BDF91600019002980499039A02F092
:1009B00007F90146019803F737FE06B080BD000035
:1009C00081B0009001B0704780B582B001900020E6
:1009D0008DF80300019890F841008007002855D554
:1009E000FFE7FFE70199002081F84000FFE7019948
:1009F000082081F8410001980168086820F4F81087
:100A00000860019800680068400700281CD5FFE7CF
:100A100001980168086820F0040008600198C16B23
:100A200043F22150C0F6000088650198C06BFFF6C4
:100A300093FF40B1FFE70199012081F8410001983F
:100A4000FFF7BEFFFFE720E001980068806800F034
:100A500020010020B0EB511F11D0FFE70198016881
:100A60000220C86001980168086840F400300860FE
:100A700001980168086840F00200086004E00199EC
:100A8000012081F84100FFE7FFE7FFE79DF8030041
:100A900002B080BD0000000081B0009040F2200153
:100AA000C2F2004108780130087001B070470000C0
:100AB00080B582B00090009820B9FFE701208DF842
:100AC000070011E000980168086820F00100086044
:100AD000009800F045FA009900204864009981F8D8
:100AE00041008DF80700FFE79DF8070002B080BDC8
:100AF00080B584B0039003980068806801900398E3
:100B00000068006800909DF804004007002868D540
:100B1000FFE79DF802004007002862D5FFE7039831
:100B2000006820300290039890F84100122826D1E6
:100B3000FFE7FFE703980068806800F004010020E9
:100B4000B0EB910F1AD0FFE70398C06A70B1FFE7CE
:100B50000398406A0078029908700399486A013046
:100B600048620399C86A0138C86206E003980168C0
:100B7000086820F48020086000E0DBE72DE003989F
:100B800090F84100222826D1FFE7FFE7039800688C
:100B9000806800F004010020B0EB910F1AD0FFE74D
:100BA0000398806B70B1FFE7029800780399096B96
:100BB00008700399086B013008630399886B01384A
:100BC000886306E003980168086820F480200860C4
:100BD00000E0DBE700E0FFE7FFE7039800F70CFB2E
:100BE00039E19DF804008007002840F1A980FFE763
:100BF0009DF802008007002840F1A280FFE70398DB
:100C000001680220C86003980168086820F4E020A9
:100C10000860039890F8410012281DD1FFE703985F
:100C200000680068400700280ED5FFE703980168B8
:100C3000086820F0040008600398C06B0168C86869
:100C400020F00100C860FFE70399012081F841000E
:100C5000039800F7A9FE72E0039890F8410022285B
:100C60003ED1FFE7039800680068400700280ED5D2
:100C7000FFE703980168086820F004000860039803
:100C8000C06B0168C86820F00100C86020E00398CC
:100C9000006820300290FFE703980068806810F435
:100CA0007C5F14D0FFE70398806B70B1FFE7029878
:100CB00000780399096B08700399086B0130086389
:100CC0000399886B0138886300E000E0E4E7FFE700
:100CD0000399012081F84100039800F07DF92DE08F
:100CE000039890F84100022808D1FFE703990120FA
:100CF00081F841000398FFF7CFFE1EE0039890F8BB
:100D00004100082817D1FFE703980168486920F0DF
:100D1000406048610399012081F841000398406CCC
:100D200020B9FFE70398FFF74BFE03E0039800F7B5
:100D30005FFAFFE700E0FFE7FFE7FFE7FFE789E093
:100D40009DF804000007002820D5FFE79DF8020069
